:10000000F8FF00201104000053480000534800008E
:100010005348000053480000534800005348000074
:100020005348000053480000534800005348000064
:100030005348000053480000534800005348000054
:100040005348000053480000534800005348000044
:10040000FFFFFFFFFFFFFFFFFFFFFFFFFEFFFFFFFD
:1004100062B607F059FDFEE7012110F01F0291407E
:10042000DFF8542840B2430942F823107047000017
:1004300010B5ADF5327D72B600A8DFF840184FF464
:10044000327200F0D7FE5FF4E131032000F049FF83
:10045000002001F0C3F8012001F0C0F8022001F0F3
:10046000BDF8032001F0BAF8042001F0B7F8052028
:1004700001F0B4F8002001F005F9012001F002F9C3
:10048000022001F0FFF8032001F0FCF8DFF8F0177C
:10049000672001F041F9DFF8E817462001F03CF948
:1004A000122001F07BF901F0DBFA642001F07EFB01
:1004B00001F057FE642001F079FB01F0C0FE6420DA
:1004C00001F074FB01F0DEFE01F0E1FE01F01AFF25
:1004D00001F0B6F802F082FB01F016FC00F0DEFB42
:1004E00003F043F8DFF89C17542003F072F844201F
:1004F000FFF792FFDFF89017432003F06AF803201C
:1005000001F026F862B6DFF8840790F900000128B0
:100510002CD10020DFF8781708600020DFF874176E
:100520000860DFF870070068042810DA01F046FE62
:10053000DFF86407B0F90000DFF854170860DFF84F
:1005400054070068401CDFF84C170860E9E7DFF843
:1005500040070068052190FBF1F003F051F8DFF847
:10056000801B08600020DFF824170870DFF8740B88
:1005700090F90000012840F0C682DFF86C0B00887B
:10058000DFF8681B0988401ADFF8641B0880DFF871
:10059000640B006800284FD1DFF85C0BDFF85C1BB0
:1005A00008605F20DFF8581B08801620DFF8541B16
:1005B0000880DFF8540B00783A2817DBDFF8480B87
:1005C0000078452812DADFF8440B007837280DDB75
:1005D000DFF8380B0078482808DA5720DFF8301B9E
:1005E00008805720DFF82C1B0880CDE1DFF81C0BBA
:1005F0000078322804DBDFF8140B00784D2812DB7A
:10060000DFF8040B007831280DDBDFF8FC0A0078F6
:100610004F2808DA5520DFF8F81A08805520DFF84F
:10062000F41A0880B0E15320DFF8E41A0880532060
:10063000DFF8E01A0880A7E1DFF8B80A00680128AF
:100640004FD1DFF8D40ADFF8B41A08606420DFF86D
:10065000B01A08801620DFF8AC1A0880DFF8A80A64
:1006600000783A2817DBDFF8A00A0078452812DA6C
:10067000DFF8980A007837280DDBDFF8900A007859
:10068000482808DA5C20DFF8881A08805C20DFF848
:10069000841A088078E1DFF8740A0078322804DBD5
:1006A000DFF8680A00784D2812DBDFF85C0A007872
:1006B00031280DDBDFF8500A00784F2808DA5A207D
:1006C000DFF84C1A08805A20DFF8481A08805BE1EE
:1006D0005820DFF83C1A08805820DFF8381A0880C4
:1006E00052E1DFF8100A006802284FD1DFF82C0A27
:1006F000DFF8081A08606920DFF8041A088016205D
:10070000DFF8001A0880DFF8000A00783A2817DBC3
:10071000DFF8F4090078452812DADFF8F0090078EC
:1007200037280DDBDFF8E4090078482808DA612073
:10073000DFF8DC1908806120DFF8D819088023E190
:10074000DFF8C8090078322804DBDFF8C009007838
:100750004D2812DBDFF8B009007831280DDBDFF817
:10076000A80900784F2808DA5F20DFF8A41908806C
:100770005F20DFF8A019088006E15D20DFF89019FE
:1007800008805D20DFF88C190880FDE0DFF864093F
:10079000006803284FD1DFF88809DFF86019086086
:1007A0006E20DFF85C1908801620DFF858190880E1
:1007B000DFF8540900783A2817DBDFF84C09007895
:1007C000452812DADFF84409007837280DDBDFF816
:1007D0003C090078482808DA6620DFF834190880D8
:1007E0006620DFF830190880CEE0DFF820090078B5
:1007F000322804DBDFF8140900784D2812DBDFF81B
:100800000809007831280DDBDFF8FC0800784F2854
:1008100008DA6420DFF8F81808806420DFF8F4189C
:100820000880B1E06220DFF8E81808806220DFF875
:10083000E4180880A8E0DFF8BC08006804284FD15D
:10084000DFF8E008DFF8B41808605520DFF8B018CA
:1008500008801620DFF8AC180880DFF8AC080078B4
:100860003A2817DBDFF8A0080078452812DADFF80D
:100870009C08007837280DDBDFF8900800784828BE
:1008800008DA4D20DFF8881808804D20DFF884183A
:10089000088079E0DFF874080078322804DBDFF89C
:1008A0006C0800784D2812DBDFF85C0800783128EE
:1008B0000DDBDFF8540800784F2808DA4B20DFF80A
:1008C000501808804B20DFF84C1808805CE0492065
:1008D000DFF83C1808804920DFF83818088053E01A
:1008E000DFF81008006805284ED15FF07F50DFF870
:1008F0000C1808605A20DFF8081808801620DFF866
:1009000004180880DFF8000800783A2817DBDFF8C1
:10091000F8070078452812DADFF8F0070078372862
:100920000DDBDFF8E8070078482808DA5220DFF806
:10093000E01708805220DFF8DC17088024E0DFF899
:10094000CC070078322804DBDFF8C00700784D2898
:1009500012DBDFF8B407007831280DDBDFF8A807D9
:1009600000784F2808DA5020DFF8A41708805020BC
:10097000DFF8A017088007E04E20DFF89417088002
:100980004E20DFF890170880DFF87807B0F90000F4
:1009900002F036FEDFF84817096802F049FE07D278
:1009A0003A20DFF86C1708803A20DFF868170880D3
:1009B000DFF87407B0F90000401EDFF82C17B1F91A
:1009C000001088420ADADFF82007B0F90000DFF8EB
:1009D0001C17B1F900100A39884215DBDFF80C0743
:1009E000B0F900000A30DFF80017B1F900108842B2
:1009F00053DADFF8F406B0F90000DFF83017B1F988
:100A00000010491C884248DADFF80407B0F90000FA
:100A100002F0F6FD0400DFF8E406006800A9DFF844
:100A2000C826B2F90020DFF80037B3F90030D21A37
:100A300051F8221002F00EFE5FF07E5102F076FEB9
:100A4000210002F007FE02F0B3FEDFF8C4160880B2
:100A5000DFF8C006B0F9000002F0D2FD0400DFF8B4
:100A60009C06006800A9DFF88026B2F90020DFF8B4
:100A7000B836B3F90030D21A51F8221002F0EAFD6C
:100A800001005FF07E5002F0B5FE210002F0E2FDB1
:100A900002F08EFEDFF87C16088001F022FCDFF801
:100AA0006006B0F90000DFF88816B1F9001088423E
:100AB00005DADFF84C060088DFF874160880DFF8E6
:100AC0004006B0F90000DFF86C16B1F9001088425A
:100AD00005DADFF82C060088DFF85816088002F0E7
:100AE0009BF8DFF84C06B0F90000DFF84C16086000
:100AF000DFF84006B0F90000DFF83C16486000203F
:100B0000DFF8E0150870DFF8340690F900000128DE
:100B100040F09F8002F0A0FC02F0A2FC02F0DEFE9A
:100B200003F02CFBDFF8180690F90000012810D123
:100B3000DFF8100690F9000000280AD1DFF8CC0594
:100B40000078DFF8C41508700021002000F063FD74
:100B500003E00121002000F05EFDDFF8E40590F9DC
:100B60000000012804D10021012000F054FD03E021
:100B70000121012000F04FFDDFF8C80590F90000C9
:100B8000012804D10021022000F045FD03E00121ED
:100B9000022000F040FDDFF8700500783F2804D106
:100BA0000021032000F037FD03E00121032000F0C5
:100BB00032FDDFF85405007801F0B8FB0020DFF8C3
:100BC0007C15087001F0C3F90E2000F04FFD0028DD
:100BD00016D10F2000F04AFD002811D0102000F09F
:100BE00045FD00280CD1112000F040FD002807D160
:100BF0008023DFF854258021DFF8500500F04CFBFE
:100C00000E2000F033FD002823D10F2000F02EFD30
:100C100000281ED1102000F029FD002819D1112034
:100C200000F024FD002814D1DFF82405027800210B
:100C3000002001F057F9DFF81C05027800211E2082
:100C400001F050F9DFF8100502780521002001F0CD
:100C500049F9DFF8080590F9000001287FF453AC4A
:100C600001F0E1FC02F0A7F901F035FD0020DFF80A
:100C7000EC14087047E4000000E100E03876000062
:100C800003010A00297B0000157C0000C515FF1F29
:100C90005C14FF1F5814FF1F8815FF1F80B5DFF875
:100CA000C02400210A2001F0B4F8DFF8B8240221A2
:100CB000002001F0AEF8022000F01AFD012807D153
:100CC000DFF8A4040068401CDFF89C14086024E0EE
:100CD000012000F00DFD012807D1DFF88C04006829
:100CE000401EDFF88414086017E0002000F000FDCB
:100CF000012812D1DFF870040068002860D00228B3
:100D000000F00B81C0F0C480042800F07081C0F0B6
:100D10003981052800F0A081D2E1DFF84C04006899
:100D2000062803DB0020DFF840140860DFF83804F1
:100D30000068002803D50520DFF82C140860DFF8D0
:100D40002C240621162001F064F8DFF81C0400684A
:100D5000002808D0022814D00CD304281FD017D3A1
:100D6000052823D028E0DFF808240521162001F00B
:100D700050F821E0DFF8FC230521162001F049F8A6
:100D80001AE0DFF8F4230521162001F042F813E001
:100D9000DFF8E8230521162001F03BF80CE0DFF82E
:100DA000E0230521162001F034F805E0DFF8D42314
:100DB0000521162001F02DF8962003F0C9FC7AE7F2
:100DC0004FF4967003F0C4FC022000F091FC01285F
:100DD00005D1C8480068401CC649086016E00120DB
:100DE00000F086FC012805D1C2480068401EC149B8
:100DF00008600BE0032000F07BFC01283FF45BAFB0
:100E0000002000F075FC012800F05A81B948006804
:100E1000062802DB0020B7490860B64800680028B1
:100E200002D50520B3490860B2480068002808D000
:100E3000022812D00BD304281BD014D305281ED0AF
:100E400022E0D14A0521162000F0E3FF1CE0CF4A42
:100E50000521162000F0DDFF16E0CD4A0521162001
:100E600000F0D7FF10E0CB4A0521162000F0D1FF9B
:100E70000AE0C94A0521162000F0CBFF04E0C74A6A
:100E80000521192000F0C5FF962003F061FC9BE7C7
:100E90004FF4967003F05CFC022000F029FC01285E
:100EA00005D192480088401C9049088016E0012036
:100EB00000F01EFC012805D18C480088401E8B499B
:100EC00008800BE0032000F013FC01283FF4F3AE90
:100ED000002000F00DFC012800F0F280834800881B
:100EE0005630924908808148008856388E490880DB
:100EF0007E48008880B201F010FAA94A0521192025
:100F000000F087FF7948B0F900200621232000F087
:100F1000E9FF7D2003F01CFCBEE74FF4967003F060
:100F200017FC022000F0E4FB012805D19D48006871
:100F3000401C9C49086016E0012000F0D9FB012804
:100F400005D198480068401E964908600BE00320D0
:100F500000F0CEFB01283FF4AEAE002000F0C8FB4D
:100F6000012800F0AD80904A0521192000F051FFC2
:100F70008C4802680621232000F0B4FF962003F07D
:100F8000E7FBCEE74FF4967003F0E2FB022000F09F
:100F9000AFFB012803D101208449087013E0012030
:100FA00000F0A6FB012803D10020804908700AE068
:100FB000032000F09DFB01283FF47DAE002000F0EF
:100FC00097FB01287CD0794890F90000012805D1D1
:100FD000774A0521192000F01CFF04E0754A05211D
:100FE000192000F016FF7D2003F0B2FBCEE74FF48E
:100FF000967003F0ADFB022000F07AFB012803D1CC
:1010000001206D49087013E0012000F071FB0128F8
:1010100003D10020684908700AE0032000F068FB53
:1010200001283FF448AE002000F062FB012847D0C1
:10103000614890F90000012805D1604A0521192076
:1010400000F0E7FE04E05E4A0521192000F0E1FE11
:10105000962003F07DFBCEE74FF4967003F078FB0B
:10106000022000F045FB012805D156480068401CCD
:101070005449086015E0012000F03AFB012805D131
:1010800050480068401E4F4908600AE0032000F005
:101090002FFB01283FF40FAE002000F029FB0128B0
:1010A0000ED0494A0521192000F0B3FE45480268D8
:1010B0000621232000F016FF962003F049FBCFE71E
:1010C000424A0521162000F0A4FE414A06211620BE
:1010D00000F09FFEFA2003F03BFB00F0F7FD01BD9E
:1010E0006014FF1FBB15FF1FA015FF1F800BFF1F04
:1010F0009215FF1F5014FF1F8FC2D53F5414FF1FBE
:101100008C15FF1F8A15FF1F1004FF1F1C04FF1FF3
:101110008E15FF1F9015FF1F9A99D93F6666E63F0F
:101120003333F33F3333B33F840BFF1F820BFF1F77
:101130008415FF1F8615FF1F6414FF1FBC15FF1FBA
:10114000A615FF1FB615FF1FCC0EFF1F4C0EFF1F6D
:10115000AF15FF1FB015FF1FB115FF1FBD15FF1FF6
:10116000C8830000E88200004C14FF1FDC830000ED
:1011700000830000188300003083000048830000D3
:101180006083000078830000F08300000484000086
:10119000188400002C840000408400005484000067
:1011A00068840000440BFF1F7C8400004C0BFF1F71
:1011B00090840000A48400004D0BFF1FB884000041
:1011C000CC840000480BFF1FE0840000F484000082
:1011D0000885000062B38B0708D0521E11F8013B4E
:1011E00000F8013B00F024808B07F6D1830740F024
:1011F000208000BF103A07D330B4B1E83810103A5D
:10120000A0E83810F9D230BC530724BFB1E8081069
:10121000A0E8081044BF51F8043B40F8043BD20753
:1012200024BF31F8022B20F8022B44BF0B78037047
:101230007047083A07D3B1E80810083A40F8043B71
:1012400040F804CBF7D25307E4E750F8041B61B130
:1012500050F8042BD30744BFA9F101039A180023C7
:10126000091F42F8043BFAD1EFE77047012110F063
:101270001F029140DFF83C2340B2430942F823109B
:101280007047012110F01F029140DFF82C2340B27B
:10129000430942F823107047F8B504000D0016000A
:1012A0001F00DFF818030088ADF80200DFF8100314
:1012B0000088ADF8000002220DF10201032000F0C9
:1012C00035F92A002100032000F030F93A003100FE
:1012D000032000F02BF9022200A9032000F026F9D8
:1012E000F1BD2DE9F84304000D0064B2002C08D0D4
:1012F000022C2CD018D3042C4FD03BD3052C5FD01C
:1013000071E0DFF8C002006850F48060DFF8B412CA
:1013100008604FF44071662000F0FEF94FF4407110
:10132000672000F0F9F95EE0DFF89802006850F4F9
:101330000060DFF8901208604FF44071432000F025
:10134000EBF94FF44071442000F0E6F94BE0DFF890
:101350007402006850F48050DFF8681208604FF49F
:101360004071632000F0D8F94FF44071622000F022
:10137000D3F938E0DFF84C02006850F40050DFF891
:10138000441208604FF44071502000F0C5F94FF44A
:101390004071512000F0C0F925E0DFF82C02006810
:1013A00050F48060DFF8201208604FF440714E2046
:1013B00000F0B2F94FF440714F2000F0ADF912E0A7
:1013C000DFF80402006850F40060DFF8FC110860E8
:1013D0004FF44071892000F09FF94FF4407188204C
:1013E00000F09AF9FFE7DFF8E40164B250F8240056
:1013F000C07810F0F300DFF8D41164B251F8241073
:10140000C870DFF8C80164B250F824008078DFF8B3
:10141000BC1164B251F82410887064B2002C02D060
:1014200064B2012C06D16A4800684FF47A714843CF
:10143000814605E0674800684FF47A714843814669
:101440002801B9FBF0F00600B6B2B6F5005F02DB8A
:1014500041F6FF700600B9FBF5F0B6B2B0EB06102E
:101460000700BFB2202F04DB4FF498715A4803F0F5
:1014700090F9564864B250F82400007810F0E0006B
:101480008046C6F3042050EA0800504964B251F87F
:10149000241008704D4864B250F8240046704B4840
:1014A00064B250F82400807A10F0E000804617F013
:1014B0001F0050EA0800454964B251F824108872B0
:1014C000424864B250F82400007C50F088003F4944
:1014D00064B251F8241008743C4864B250F82400F7
:1014E000C07850F00C00394964B251F82410C8702B
:1014F000BDE8F183354A40B252F8202012799206B5
:10150000F8D5324A40B252F8202092F907200A70EA
:1015100070472E4A40B252F8202012791206F8D5B0
:101520002A4A40B252F82020D171704770B50400A9
:101530000D0016003000461E002808D095F9001056
:1015400049B2200040B2FFF7E4FF6D1CF2E770BD26
:1015500010B504001D4864B250F82400C07850F063
:1015600020001A4964B251F82410C87064B26000B7
:101570002D3040B2FFF77AFE10BD10B504001348BD
:1015800064B250F82400C07810F0DF000F4964B254
:1015900051F82410C8700D4864B250F82400C07887
:1015A000C021084205D164B260002D3040B2FFF77F
:1015B00068FE10BD00E100E080E100E02E36000092
:1015C000DA38000034800440288004400C0CFF1FEF
:1015D0002815FF1F3015FF1F3C81000010B50400C7
:1015E00064B2062C07DA01220121144864B2205C9F
:1015F00003F04EF90EE0062004002000441E40B225
:10160000002807D0012201210C4864B2205C03F0BD
:101610003FF9F2E710BD38B504000D002900C9B24A
:10162000064864B2205C03F08AF931BD10B50400AD
:10163000024864B2205C03F0BCF910BD2804FF1F0F
:1016400080B540F21311112000F066F840F213113A
:10165000102000F061F840F213110F2000F05CF848
:1016600040F213110E2000F057F801BD10B5040030
:101670002000C0B203F0BAF9002801D1002000E038
:10168000012010BD10B5040064B2082C0DDA002250
:101690000021204864B2205C03F0FAF803211D48C1
:1016A00064B2205C00F04FF814E008200400200031
:1016B000441E40B200280DD000220021154864B21B
:1016C000205C03F0E5F80321124864B2205C00F0CE
:1016D0003AF8ECE710BD10B504000E4864B2205C87
:1016E00003F084F9002801D1002000E0012010BDA2
:1016F00010B50400200040B2FFF7EDFF002807D12D
:10170000200040B2FFF7E7FF002801D1002000E0F1
:10171000012010BD2004FF1F10B41E4A12684FF4B0
:101720000073C0B24409A3401A431A4B1A601A4A04
:10173000C0B2431152F82320C0B210F01F0342F888
:10174000231010BC704710B4124A12684FF4007393
:10175000C0B24409A3401A430E4B1A6031F4E06151
:101760000D4AC0B2431152F82320C0B210F01F033B
:1017700052F8232012F4E0621143074AC0B2431129
:1017800052F82320C0B210F01F0342F8231010BCFF
:101790007047000038800440F80BFF1F38B5040084
:1017A00064B26511EDB2002D02D0012D11D021E0FF
:1017B000A348006850F00060A1490860A148006893
:1017C00030F090009F4908609E4800689D4908607D
:1017D00014E09D48006850F000609B4908609948FB
:1017E000006830F4104097490860964800689549B1
:1017F000086003E03321954802F0CBFF64B220007B
:10180000002800F08980012800F08680032800F07D
:10181000838008284ED0092851D00A2854D00B289C
:1018200057D00C285AD00D285DD00E2860D00F2834
:1018300063D0102870D0112864D0122867D01328E4
:101840006AD0142868D01A2866D01D2864D01E28B3
:1018500062D0202861D021285FD023285DD02428A1
:101860005CD025285FD0262862D0272865D028287C
:1018700068D029286BD02A286ED02B2871D02C282C
:1018800074D02D2877D02E287AD02F287DD03028DC
:1018900000F0858031287DD0322800F08080332808
:1018A0007DD034287BD03A2879D03D2877D03E2887
:1018B00075D075E000212020FFF72EFF74E0002195
:1018C0002120FFF729FF6FE000210720FFF724FF09
:1018D0006AE000210820FFF71FFF65E000212220B9
:1018E000FFF71AFF60E000212320FFF715FF5BE000
:1018F00000214020FFF710FF56E000214120FFF7B4
:101900000BFF51E000219820FFF706FF4CE000217B
:101910009920FFF701FF47E046E045E000218020E5
:10192000FFF7FAFE40E000218120FFF7F5FE3BE0E3
:1019300000218220FFF7F0FE36E000218320FFF730
:10194000EBFE31E000212020FFF7E6FE2CE0002135
:101950002120FFF7E1FE27E000212420FFF7DCFE35
:1019600022E000212520FFF7D7FE1DE000212620E0
:10197000FFF7D2FE18E000212720FFF7CDFE13E08D
:1019800000212A20FFF7C8FE0EE000212B20FFF7E0
:10199000C3FE09E000211120FFF7BEFE04E003E0D2
:1019A0009A212A4802F0F5FE31BDF8B504000D0079
:1019B00064B266110027290049B2200040B200F04D
:1019C0001CF8234876B250F8260000680006F8D5C7
:1019D0001F4876B250F82600006907001C4876B20E
:1019E00050F82600006830F08000194976B251F8AE
:1019F00026100860380080B2F2BD30B440B2421107
:101A000010F01F0349B28C0014F00C0454F0500481
:101A10000F4D52B255F82250AC6004240C4D52B216
:101A200055F82250EC60DBB213F01F0454F0400470
:101A3000074D52B255F822502C6030BC7047000060
:101A40003C8004401880044030800440A0810000A5
:101A5000880BFF1F0B20401EC0B20028FBD170472F
:101A600080B520218620FFF76EFE20218120FFF720
:101A70006AFE01220121862002F00AFF01220121D3
:101A8000812002F005FF01BD80B5012043490860B7
:101A9000012043490860FFF7DDFF00203F4908604F
:101AA000FFF7D8FF00203E49086001BD80B5002047
:101AB0003B490860002039490860FFF7CBFF01204F
:101AC0003749086001203549086001BD38B5040078
:101AD00000200500EDB2082D1CDA00203049086016
:101AE000FFF7B8FFE4B214FA05F0000603D50120B1
:101AF0002A49086002E0002028490860FFF7AAFF91
:101B0000012027490860FFF7A5FF0020244908604D
:101B10006D1CDFE7FFF79EFF012020490860FFF7FB
:101B200099FF01201E490860FFF794FF00201C491F
:101B3000086031BD38B50020050000201849086054
:101B4000FFF788FF012015490860FFF783FF002099
:101B50001449086000200400E4B2082C13DAFFF7EF
:101B600079FF00200E490860FFF774FF01200C493F
:101B70000860FFF76FFF6D000B480068002800D079
:101B80006D1C641CE8E7002005490860FFF762FF50
:101B90000120044908602800C0B232BD0420FE4381
:101BA0001820FE438422FE430422FE43C0B20028D4
:101BB00001D10123180000231900C0B2814209DAC3
:101BC00000231A0040F237539A4201DA521CF9E717
:101BD000491CF2E770470022DFF8A0341A600022A7
:101BE0001100C9B2082917DAC0B210FA01F21206C0
:101BF00004D50122DFF888341A6003E00022DFF800
:101C000080341A600022DFF87C341A600122DFF889
:101C100074341A60491CE4E770470122DFF85C3431
:101C20001A6000221100C9B2082917DAC0B210FAEE
:101C300001F2120604D50122DFF844341A6003E0F1
:101C40000022DFF83C341A600022DFF838341A60D2
:101C50000122DFF830341A60491CE4E7704738B5D8
:101C600004000D00B5F15000C0B2FFF7B4FFE4B2BC
:101C7000200950F01000C0B2FFF7ADFF14F00F00C4
:101C800050F00100C0B2FFF7A6FF31BD70B50400EF
:101C900000200500EDB2082D17DAB5F15000C0B2F2
:101CA000FFF799FF0120FFF796FF1020FFF793FF42
:101CB00000200600F6B2802E05DA2000C0B2FFF741
:101CC000ACFF761CF6E76D1CE4E770BD38B500206C
:101CD0000400E4B2082C16DAB4F15000C0B2FFF7E9
:101CE0007AFF0120FFF777FF1020FFF774FF002035
:101CF0000500EDB2802D04DA0020FFF78EFF6D1C89
:101D0000F7E7641CE5E731BD80B5002201213420EE
:101D100002F0BEFD00220121352002F0B9FD0022B3
:101D20000121362002F0B4FD00220121372002F00B
:101D3000AFFD00220121402002F0AAFD0120DFF8C2
:101D4000441308600020DFF8401308603220FFF7DA
:101D50002DFF0120DFF830130860AE20FFF73BFFB6
:101D60000020FFF738FF1020FFF735FF4020FFF776
:101D700032FF8120FFF72FFFCF20FFF72CFFA1209C
:101D8000FFF729FFC820FFF726FFA620FFF723FF54
:101D9000A820FFF720FF3F20FFF71DFFD320FFF70C
:101DA0001AFF0020FFF717FFD520FFF714FF802050
:101DB000FFF711FFD920FFF70EFFF120FFF70BFF10
:101DC000DA20FFF708FF1220FFF705FFDB20FFF7FF
:101DD00002FF4020FFF7FFFE2020FFF7FCFE02205D
:101DE000FFF7F9FE8D20FFF7F6FE1420FFF7F3FE54
:101DF000A420FFF7F0FEA620FFF7EDFEAF20FFF7CF
:101E0000EAFE0020FFF742FF00210020FFF727FF36
:101E100001BD2DE9F84304000D00160000275FF016
:101E200000085FF000095FFA89F919F80600002838
:101E30002ED05FFA89F919F8060020380700E4B2BD
:101E40007F2C02DB002004006D1C2900C9B2200099
:101E5000C0B2FFF704FF002080465FFA88F8B8F1AF
:101E6000060F11DADFF82402FFB2062101FB07009A
:101E70005FFA88F818F80000FFF7CFFE3C20FFF764
:101E800095FE18F10108E8E7A41D19F10109CAE758
:101E9000BDE8F18370B504000D002900C9B220002F
:101EA000C0B2FFF7DCFE0120EDB2082195FBF1F294
:101EB00002FB115290400600EDB2E8085038C0B263
:101EC000FFF789FEE4B2200950F01000C0B2FFF71E
:101ED00082FE14F00F00FFF77EFE3000C0B2FFF765
:101EE0009CFE70BD2DE9F04704000D0016005FF068
:101EF00000085FF001095FF0010AB9F1000F08D096
:101F00000A2000FB0AFA96FBFAF0814618F1010854
:101F1000F3E70020070047450DDA0A209AFBF0FAA4
:101F200096FBFAF030305A49785496FBFAF00AFBE7
:101F300010667F1CEFE7002055497854544A290069
:101F4000C9B22000C0B2FFF764FFBDE8F0872DE9F9
:101F5000F04100200400E4B2802C80F28D800E203D
:101F6000FFF784FB00283DD10F20FFF77FFB0028FF
:101F700038D11020FFF77AFB002833D01120FFF76B
:101F800075FB00282ED14348E4B2205C07003900DD
:101F9000C9B22000C0B2FFF762FEFFB2F8085038A5
:101FA000C0B2FFF718FEE4B2200950F01000C0B232
:101FB000FFF711FE14F00F00FFF70DFE0020FFF7F2
:101FC0002CFE3548E4B2205C052190FBF1F0804600
:101FD0003048E4B204F800804146C9B22000C0B2E3
:101FE000FFF758FF0E20FFF741FB002842D10F20DA
:101FF000FFF73CFB00283DD11020FFF737FB0028FE
:1020000038D11120FFF732FB002833D02148E4B249
:10201000201890F8800005002900C9B22000C0B245
:10202000FFF71DFEEDB2E8085038C0B2FFF7D3FD50
:10203000E4B2200950F01000C0B2FFF7CCFD14F05C
:102040000F00FFF7C8FD0020FFF7E7FD1248E4B2DC
:10205000201890F88000052190FBF1F006000D4853
:10206000E4B2201880F880603100C9B22000C0B20C
:10207000FFF710FF641C6EE7BDE8F0815C08FE43CB
:102080005408FE435808FE435008FE430079000000
:10209000D014FF1FCC12FF1F4C0EFF1F401E80B23A
:1020A000002806D000221100C9B20A29F6DA491C1C
:1020B000FAE7704738B50400FFF7E6FCD220FFF7D7
:1020C00005FD2000C0B2FFF701FDFFF7DDFCD320C6
:1020D000FFF7FCFCFFF72EFD0500FFF7E7FC2800EB
:1020E000C0B232BD38B504000D00FFF7CDFCD220E0
:1020F000FFF7ECFC2000C0B2FFF7E8FC2800C0B2FC
:10210000FFF7E4FCFFF7D2FC31BD2DE9F8430400F2
:102110000D0000260027EDB22E2D01DB00201EE071
:102120003000C0B2204207D12720FFF7C3FF0600CE
:102130007F1CBFB2032FF3DB2800C0B2FFF7BAFF4A
:102140008046681EC0B2FFF7B5FF81465FEA0828E7
:1021500059EA08080FFA88F85FEAA80000B2BDE85B
:10216000F28380B50F20FFF7A5FFD328FAD10A200C
:10217000FFF794FFFF212020FFF7B4FF0A20FFF7AD
:102180008DFF00212120FFF7ADFF0A20FFF786FF1A
:1021900008212220FFF7A6FF0A20FFF77FFF30214A
:1021A0002320FFF79FFF0A20FFF778FF002124205C
:1021B000FFF798FF0A20FFF771FF01BD80B52921C5
:1021C0002720FFF7A2FF0149088001BD8815FF1FE6
:1021D000401E80B2002806D000221100C9B200299A
:1021E000F6D1491CFAE7704738B50400FFF74CFCFC
:1021F0003A20FFF76BFC2000C0B2FFF767FCFFF747
:1022000043FC3B20FFF762FCFFF794FC0500FFF75F
:102210004DFC2800C0B232BD38B504000D00FFF7F8
:1022200033FC3A20FFF752FC2000C0B2FFF74EFC0F
:102230002800C0B2FFF74AFCFFF738FC31BD80B57B
:102240000D20FFF7D1FF1A28FAD10A20FFF7C0FFAF
:1022500000210B20FFF7E0FF0A20FFF7B9FF022162
:102260002B20FFF7D9FF0A20FFF7B2FF10210F2024
:10227000FFF7D2FF0A20FFF7ABFF01212A20FFF76B
:10228000CBFF01BD80B5012002F09BFD01BD80B5F3
:1022900001224FF6FF71012002F04CFE00220021C6
:1022A000302002F0F5FA01BD10B5012002F00CFE5D
:1022B0000400012002F01EFE200000B210BD38B55F
:1022C000302002F093FB050002F073FE0400EDB233
:1022D000002D01D124B2644202F07BFE200000B246
:1022E00032BD80B5FFF7EBFF404204490880FFF79D
:1022F000DBFF40420249088001BD00008415FF1F3A
:102300008615FF1F80B5DFF88807B0F9003032224C
:102310000021022002F08EFB01BD10B50400A4B222
:1023200022000021022002F0D5FC10BD70B504008F
:10233000DFF86007006800280CD1DFF85C07006850
:10234000DFF858170860DFF850074068DFF85017CB
:10235000086058E0DFF83C07006801280CD1DFF87E
:1023600038070068DFF834170860DFF82C0740688A
:10237000DFF82C17086046E0DFF81807006802282D
:102380000CD1DFF814070068DFF810170860DFF8D9
:1023900008074068DFF80817086034E0DFF8F40643
:1023A000006803280CD1DFF8F0060068DFF8EC16AF
:1023B0000860DFF8E4064068DFF8E416086022E011
:1023C000DFF8D006006804280CD1DFF8CC060068DE
:1023D000DFF8C8160860DFF8C0064068DFF8C016EE
:1023E000086010E0DFF8AC06006805280BD1DFF8C4
:1023F000A8060068DFF8A4160860DFF89C064068AD
:10240000DFF89C160860E4B2D4F13F0001F0F8F860
:10241000DFF890160860DFF8900690F900000128B8
:102420000FD1DFF88006006802F0ECFDDFF87C26B3
:10243000DFF87C3602F00EFE02F0DEFEDFF86416F6
:102440000860DFF860060068002102F01DFF34D24A
:10245000DFF83C06B0F9000001F0D2F80500DFF823
:102460003C060168DFF83C06006801F0F3F8DFF88D
:102470003416096801F0EEF8290001F057F905005B
:10248000DFF81C060168DFF81C06006801F0E2F8BE
:102490000600DFF810060068DFF81816096801F07A
:1024A000A9F9310001F0D6F8290001F03FF901F057
:1024B0007FF9DFF80416088034E0DFF8D405B0F9BE
:1024C000000001F09DF80500DFF8D0050168DFF895
:1024D000D405006801F0BEF8DFF8C815096801F0FE
:1024E000B9F80100280001F085F90500DFF8B00512
:1024F0000168DFF8B005006801F0ACF80600DFF80D
:10250000B4050068DFF89C15096801F073F9310023
:1025100001F0A0F8290001F009F901F049F9DFF80C
:1025200098150880DFF89405B0F90000DFF88815E9
:10253000B1F90010401A51280BDADFF88005B0F924
:102540000000DFF87415B1F90010401A10F1500FB7
:102550000EDADFF86805B0F90000DFF85C15B1F9B4
:1025600000100818022190FBF1F0DFF84C150880EC
:10257000DFF84C05B0F90000DFF83C15B1F90010A8
:10258000884205DADFF838050088DFF82C15088066
:10259000DFF82405B0F90000DFF82815B1F90010C4
:1025A000884205DADFF81C050088DFF80C15088082
:1025B000DFF8140590F90000012805D1DFF80005C7
:1025C0000088DFF8F4140880DFF8000590F90000B7
:1025D000012805D1DFF8EC040088DFF8DC1408805E
:1025E000DFF8D404008880B2FFF797FEDFF8C80454
:1025F0000088DFF8C8140880DFF8D4040088DFF80A
:10260000D4140880E4B2DFF8C8040480DFF8A4041E
:102610000068DFF8C4140860DFF888040068DFF899
:102620009414086070BD80B5DFF8B00490F9000024
:1026300000284FD00320FEF7A0FFDFF8A00490F998
:102640000000012807D03ED303281ED010D3052850
:1026500025D01FD337E00120DFF884140870002054
:10266000DFF8801408700020DFF87C1408702AE07E
:102670000120DFF8701408700020DFF86C14087077
:102680000020DFF85C1408701DE00120DFF838142A
:10269000087018E00120DFF83414087013E00120FE
:1026A000DFF8441408700020DFF8341408700020AC
:1026B000DFF8301408700020DFF80C1408700020D8
:1026C000DFF8081408700020DFF8101408700320E9
:1026D000FEF73EFF01BD70B50026DFF8100490F94B
:1026E0000000002800F0D3810320FEF746FFDFF84A
:1026F000FC0390F90000012801D1012000E0002036
:10270000C0B200281FD0DFF8E803F6B2311803206A
:10271000FEF7F0FE3000461CDFF8D413C0B240567E
:102720004F2807D0DFF8C803F6B231180320FEF7B0
:10273000E1FEEFE70020DFF8B813F6B2711801F8F8
:10274000010C00200600DFF8A40390F90000012826
:1027500065D1DFF89C0390F90000642110FB01F0C3
:10276000DFF88C1391F901100A2211FB0200DFF847
:10277000801391F9021040FA81F0DFF878130818FD
:1027800002F094FD04000D00DFF8640390F90400EA
:10279000303800F035FF02F035FCC44AD64B02F069
:1027A00059FC22002B0002F099FD04000D00D048D6
:1027B00090F90500303800F023FF02F023FCCF4AE7
:1027C000CF4B02F047FC22002B0002F087FD0400F3
:1027D0000D00C74890F90600303800F011FF02F0F4
:1027E00011FCC84AC84B02F035FC22002B0002F055
:1027F00075FD04000D00BE4890F90700303800F068
:10280000FFFE02F0FFFBC14AC14B02F023FC220095
:102810002B0002F063FD02F0EFFCBE490860B348F4
:1028200090F90000022860D1BB4890F900006421B3
:1028300010FB01F0B84991F901100A2211FB0200C6
:10284000B54991F9021040FA81F0AA49081802F03E
:102850002DFD04000D00B04890F90400303800F060
:10286000CFFE02F0CFFB914AA34B02F0F3FB220014
:102870002B0002F033FD04000D00A74890F905007D
:10288000303800F0BDFE02F0BDFB9C4A9C4B02F0CC
:10289000E1FB22002B0002F021FD04000D009E4808
:1028A00090F90600303800F0ABFE02F0ABFB954A21
:1028B000954B02F0CFFB22002B0002F00FFD04002D
:1028C0000D00954890F90700303800F099FE02F0AD
:1028D00099FB8E4A8E4B02F0BDFB22002B0002F0CA
:1028E000FDFC02F089FC8D490860804890F90000E9
:1028F000032860D18A4890F90000642110FB01F0A0
:10290000874991F901100A2211FB0200844991F9CB
:10291000021040FA81F07749081802F0C7FC040061
:102920000D007F4890F90400303800F069FE02F095
:1029300069FB5E4A704B02F08DFB22002B0002F017
:10294000CDFC04000D00764890F90500303800F009
:1029500057FE02F057FB694A694B02F07BFB2200ED
:102960002B0002F0BBFC04000D006D4890F906003E
:10297000303800F045FE02F045FB624A624B02F03F
:1029800069FB22002B0002F0A9FC04000D00644842
:1029900090F90700303800F033FE02F033FB5B4A59
:1029A0005B4B02F057FB22002B0002F097FC02F079
:1029B00023FC3A4908604D4890F90000042860D192
:1029C000584890F90000642110FB01F0554991F935
:1029D00001100A2211FB0200524991F9021040FA3B
:1029E00081F04449081802F061FC04000D004D48D4
:1029F00090F90400303800F003FE02F003FB2B4A8C
:102A00003D4B02F027FB22002B0002F067FC040084
:102A10000D00444890F90500303800F0F1FD02F057
:102A2000F1FA364A364B02F015FB22002B0002F079
:102A300055FC04000D003B4890F90600303800F0CA
:102A4000DFFD02F0DFFA2F4A2F4B02F003FB2200DA
:102A50002B0002F043FC04000D00324890F90700FF
:102A6000303800F0CDFD02F0CDFA284A284B02F0B4
:102A7000F1FA22002B0002F031FC02F0BDFB084904
:102A800008600020194908700320FEF761FD70BD41
:102A9000800BFF1F5014FF1F500BFF1FE414FF1F7C
:102AA000E814FF1F1C15FF1FAB15FF1F9A9999997A
:102AB000999901402015FF1FA015FF1FA215FF1FA8
:102AC000820BFF1F840BFF1FC815FF1FC915FF1FB7
:102AD000320CFF1F340CFF1F2415FF1FBF15FF1FF3
:102AE000C615FF1FC715FF1F300CFF1FC015FF1FA6
:102AF000EC14FF1F30EBFFFF9999B93F7B14AE47F1
:102B0000E17A843FFCA9F1D24D62503F2D431CEB8A
:102B1000E2361A3FDC14FF1FF814FF1FE014FF1FFA
:102B20000415FF1F1015FF1F10B50400002203211C
:102B3000002002F0CFF8A4B222000221002002F00F
:102B4000C9F810BD10B50400A4B222000321002072
:102B500002F0C0F800220221002002F0BBF810BDF4
:102B600010B5040000220121002002F0B3F8A4B245
:102B700022000021002002F0ADF810BD10B50400C5
:102B8000A4B222000121002002F0A4F800220021BA
:102B9000002002F09FF810BD10B5040024B2002CF4
:102BA00004D4200080B2FFF7BFFF05E024B26442E6
:102BB000200080B2FFF7C6FF10BD10B5040024B29C
:102BC000002C04D4200080B2FFF7CAFF05E024B235
:102BD0006442200080B2FFF7D1FF10BD80B51E23F4
:102BE00042F210720221002001F024FF1E2342F263
:102BF00010720321002001F01DFF1E2342F210720B
:102C00000021002001F016FF1E2342F21072012164
:102C1000002001F00FFF01BD80B5DFF8700690F9CC
:102C20000000012803D10120DFF864160870DFF8E6
:102C3000640690F90000012809D1DFF8500690F9E8
:102C40000000002803D10020DFF844160870DFF8E8
:102C5000480690F90000012809D17FF0C700DFF88D
:102C60003C1608807FF0C700DFF834160880DFF8D4
:102C7000340690F90000012807D10020DFF828165B
:102C800008800020DFF824160880DFF8240600689A
:102C9000DFF820160860DFF820060068DFF81C1651
:102CA0000860DFF81C060068DFF804160860DFF82B
:102CB00014060068DFF800160860DFF8E0050088F9
:102CC000DFF804160880DFF8D8050088DFF8FC1567
:102CD0000880DFF8D405B0F90000DFF8F415B1F989
:102CE0000010401A00F08CFCDFF8D4150860DFF803
:102CF000BC05B0F90000DFF8DC15B1F90010401A8E
:102D000000F07EFCDFF8BC150860DFF8CC05016838
:102D1000DFF8AC05006800F009FDDFF8BC150860BD
:102D2000DFF8B8050168DFF89C05006800F0FEFCDC
:102D3000DFF8A8150860DFF8A0050068DFF8A01527
:102D400002F0A2FA04D8DFF89C05DFF88C150860C1
:102D5000DFF884050068DFF8901500F069FC04D204
:102D6000DFF88405DFF870150860DFF8700500688B
:102D7000DFF86C1502F088FA04D8DFF86805DFF890
:102D80005C150860DFF854050068DFF85C1500F09A
:102D90004FFC04D2DFF85005DFF840150860DFF87B
:102DA0003005B0F90000DFF80015B1F90010401A45
:102DB000032812DBDFF81C05B0F90000DFF8EC1483
:102DC000B1F90010401A032807DB0020DFF80815CE
:102DD00008600020DFF804150860DFF8C80490F9E7
:102DE0000000012807D10020DFF8EC140860002063
:102DF000DFF8E8140860DFF8F4040168DFF8C004C5
:102E0000006800F027FCDFF8E8140860DFF8E4044D
:102E10000168DFF8C404006800F01CFCDFF8D81477
:102E20000860DFF89C040068DFF88414096800F08B
:102E3000E1FCDFF8C814096800F00CFCDFF8C014EE
:102E40000860DFF8A8040168DFF87804006800F083
:102E500001FCDFF8B0140860DFF898040168DFF8BF
:102E60007C04006800F0F6FBDFF89C140860DFF8D3
:102E700054040068DFF84014096800F0BBFCDFF878
:102E80007C14096800F0E6FBDFF880140860DFF8C6
:102E900060040168DFF86004006800F047FCDFF8B8
:102EA0006014096800F042FC00F082FCDFF8EC13CB
:102EB0000880DFF850040168DFF84C04006800F077
:102EC00035FCDFF84814096800F030FC00F070FCB5
:102ED000DFF8CC130880DFF80004006800F068FC1D
:102EE000DFF82C148860DFF8F403006800F060FC61
:102EF000DFF81C14C860DFF8A403B0F9000040F24A
:102F0000CB31884204DB40F2CA30DFF890130880EE
:102F1000DFF88803B0F90000DFF8F813884204DA1C
:102F2000DFF8F003DFF874130880DFF87403B0F9FA
:102F3000000040F2CB31884204DB40F2CA30DFF8B7
:102F400060130880DFF85803B0F90000DFF8C413FD
:102F5000884203DADFF8BC03D1490880DFF8700348
:102F6000B0F90000032805DBDFF86803B0F90000C2
:102F7000032807DADFF8A00390F90000012801D147
:102F800000F012F8C24890F90000012801D100F0C9
:102F90000BF8C248B0F90000FFF7FEFDC048B0F9D9
:102FA0000000FFF70AFE01BD0020BC490880002098
:102FB000BB490880704770B50026D84890F90000DA
:102FC000002800F062810320FEF7D7FAD34890F979
:102FD0000000012801D1012000E00020C0B200283B
:102FE0001BD0CF48F6B231180320FEF783FA300029
:102FF000461CCB49C0B240564F2806D0C848F6B24E
:1030000031180320FEF776FAF1E70020C449F6B242
:10301000711801F8010C00200600C04890F900006A
:10302000012860D1BE4890F90000642110FB01F036
:10303000BB4991F901100A2211FB0200B84991F92C
:10304000021040FA81F0B749081802F02FF9040085
:103050000D00B34890F90400303800F0D1FA01F0C7
:10306000D1FFB14AB14B01F0F5FF22002B0002F075
:1030700035F904000D00AA4890F90500303800F039
:10308000BFFA01F0BFFFAA4AAA4B01F0E3FF2200FA
:103090002B0002F023F904000D00A14890F906006E
:1030A000303800F0ADFA01F0ADFFA34AA34B01F0B8
:1030B000D1FF22002B0002F011F904000D00984806
:1030C00090F90700303800F09BFA01F09BFF9C4A12
:1030D0009C4B01F0BFFF22002B0002F0FFF802F032
:1030E0008BF8824908608D4890F90000022860D171
:1030F000954890F90000642110FB01F0924991F984
:1031000001100A2211FB02008F4991F9021040FAC6
:1031100081F08449081802F0C9F804000D008A48BB
:1031200090F90400303800F06BFA01F06BFF7E4A32
:103130007E4B01F08FFF22002B0002F0CFF804003D
:103140000D00814890F90500303800F059FA01F07F
:1031500059FF774A774B01F07DFF22002B0002F0E8
:10316000BDF804000D00784890F90600303800F0F2
:1031700047FA01F047FF704A704B01F06BFF2200E5
:103180002B0002F0ABF804000D006F4890F9070027
:10319000303800F035FA01F035FF694A694B01F02B
:1031A00059FF22002B0002F099F802F025F851494E
:1031B00008605A4890F90000032860D1634890F9EC
:1031C0000000642110FB01F0604991F901100A220E
:1031D00011FB02005D4991F9021040FA81F051495A
:1031E000081802F063F804000D00584890F9040034
:1031F000303800F005FA01F005FF4B4A4B4B01F067
:1032000029FF22002B0002F069F804000D004F484E
:1032100090F90500303800F0F3F901F0F3FE444A6C
:10322000444B01F017FF22002B0002F057F8040076
:103230000D00464890F90600303800F0E1F901F041
:10324000E1FE3D4A3D4B01F005FF22002B0002F05C
:1032500045F804000D003D4890F90700303800F0B3
:10326000CFF901F0CFFE364A364B01F0F3FE2200D3
:103270002B0002F033F801F0BFFF20490860002066
:10328000264908700320FEF763F970BDC315FF1FC0
:10329000300CFF1FC215FF1FC715FF1F9815FF1F1A
:1032A0009C15FF1FA915FF1F8E15FF1F9015FF1FEF
:1032B000B414FF1FB814FF1FC414FF1FC814FF1F4E
:1032C000B014FF1FC014FF1F9A15FF1F9E15FF1F8C
:1032D0008415FF1F8615FF1FBC14FF1FCC14FF1F92
:1032E0000160EA460060EA460060EAC6240CFF1F5F
:1032F0009814FF1F280CFF1F9C14FF1F2C0CFF1F8E
:10330000A014FF1FA414FF1FA814FF1FAC14FF1F5D
:103310006414FF1F36FCFFFFC115FF1FBE15FF1F02
:103320007414FF1F30EBFFFF9A9999999999B93F4F
:103330007B14AE47E17A843FFCA9F1D24D62503F45
:103340002D431CEBE2361A3F8014FF1F8C14FF1F25
:1033500038B504000225E4B2022C03DB332189488E
:1033600001F017FA2800451EC0B2002807D021003E
:10337000C9B28548EDB2285C01F0E1FAF2E731BD4F
:1033800038B504000225E4B2022C03DB40217D485D
:1033900001F0FFF92800451EC0B2002807D0210027
:1033A000C9B27A48EDB2285C01F0C9FAF2E731BD42
:1033B00038B504000225EDB2002D14D06D1E7448FE
:1033C000EDB22856FEF7EAF9002201216F48EDB26E
:1033D000285C01F05DFA002201216B48EDB2285C07
:1033E00001F056FAE7E76B4804606A4800686A49EA
:1033F000096801FB00F1002001F0E4FF00F088F80B
:1034000031BD0CB438B504000D0064B2032C03DBED
:1034100061215C4801F0BDF9002264B2022C04DA9B
:103420005E4B64B243F8245013E064B2022C10D116
:1034300004AB1800290023005C1E5BB2002B08D0EF
:10344000564BD2B243F82210521C0368001D1900DB
:10345000F1E731BC5DF80CFB012051490870704761
:1034600080B54F4890F90000012805D100F010F810
:1034700002204B49087001E000F04AF801BD81B01C
:10348000009000994A1E00920029FAD101B07047BD
:1034900070B5802500240020FFF772FF0A20FFF797
:1034A000EEFF0120FFF754FF0A20FFF7E8FF01209D
:1034B000FFF766FF0A20FFF7E2FF0020FFF748FF53
:1034C0000A20FFF7DCFF2800451EC0B200281ED0EE
:1034D0000020FFF755FF022006003000461EC0B254
:1034E00000280CD000212A48F6B23056FEF75DFACB
:1034F0002A49F6B251F82610E4B26054EDE70120F3
:10350000FFF73EFF0A20FFF7BAFF641CDBE770BD40
:1035100010B580240020FFF733FF0120FFF7AFFF35
:103520000120FFF715FF0120FFF7A9FF0120FFF79A
:1035300027FF0120FFF7A3FF0020FFF709FF01206D
:10354000FFF79DFF2000441EC0B200280CD00020D1
:10355000FFF716FF0120FFF792FF0120FFF710FF92
:103560000120FFF78CFFEDE710BD80B50D4B0E4A33
:103570000E490220FFF745FF0120FFF719FF01BDAB
:1035800000000000688000003C0BFF1F400BFF1F85
:10359000380BFF1F400EFF1F3015FF1F440EFF1F8B
:1035A000BA15FF1F4C0FFF1FCC0EFF1F4C0EFF1F45
:1035B00010B504004FF4007094FBF0F101FB1041D2
:1035C000002903D01E210B4801F0E3F80A480460EB
:1035D00010BD38B504000D0007480068074988424F
:1035E00003D03021034801F0D4F8044864B240F815
:1035F000245031BD7081000008ED00E00000FF1F85
:10360000002840F10780F446404200F003F850F0F3
:10361000004060470AD0B0FA80F18840D1F19D01A6
:10362000C905020672F1004241EB1020704702FD0D
:103630004FF0807C1CEB400F94BF1CEB410F05E06A
:1036400040EA010C5FEA4C0C01D28842704718BF77
:1036500081427047FF2212EAD05C1DBF12EAD153AB
:10366000944593422BE09C44D30780EA01021A4020
:1036700043EA002043EA0121A1FB0030410038BFAA
:1036800040007CF17F010BDBFE294ADA5B0842EA4D
:10369000C15153EA006373F1004C51EB10207047A5
:1036A000D1F1080CDCF120012FDB5B0810FA01F1ED
:1036B0000B4373F1004120FA0CF0504170479445E0
:1036C0001CBF02EAD153934280EA010202F0004299
:1036D0001DD0400019D0490017D05BB9634514D004
:1036E0000902B1FA81F39940BCEB030CC00140F030
:1036F0000040C1E70002B0FA80FC10FA0CF0B3EB16
:103700000C0CC90141F00041B6E7100070474000C1
:103710000AD0490008D010F1807F94BF11F1807F5A
:1037200002E042F0FF407047D043704790EA010F3B
:1037300044BF81F0004100F065B800BF421A3CBFB1
:10374000801A89184FF0004CC0F3C752FF2A24D0CA
:10375000C1F3C75313B3D21AD2F1190327DD4CEAD0
:1037600001214CFA03F321EA0303D140C20D4CEAD4
:103770000020401834BF20EA0C004CEA5000D2056B
:1037800053EA006373EB0C0C52EB1020420012F171
:10379000807F38BF7047C00DC0057047490212BF17
:1037A0009A4200EB5120F8E7D2F11703D9D57047C0
:1037B0004100090E7F3915D4D1F11F0114D4400006
:1037C00007D2C00140F00040C84048BF6FF0004041
:1037D0007047C00140F00040C8404CBF4FF000406F
:1037E000404270470020704700424FF0004058BFF1
:1037F000C043704790EA010F44BF81F00041FFF7DA
:103800009DBF00BF431A4FF000423EBF5340C01A55
:10381000C91800BFD3095FEAD05C13EB400F34BF77
:10382000B3EB410F40E07CEBD1530CD342EA0121D2
:1038300022D8D1EB402009D3400A28BF5FEA5001CB
:1038400040EBCC507047401A15D04002B0FA80F2DD
:10385000521C9040400A4FEA3C23B3EB026384BF02
:1038600000EB730007E040F400001A16DB07C2F11A
:103870000102D04018437047182BFCDC31FA03F2E8
:1038800002FA03F3591A38BF42F00102D2EB40208A
:103890003CBF4000ACF1010C5FEACC5CC20572F1A8
:1038A00000414CEB5020704713EB400F0FD24B0000
:1038B00009D0ACEBD153022B03DB4902172BDDDD22
:1038C00070479143401A4300D5D10020704713EB55
:1038D000410FD0D36FF000007047FD022DE9F04F8B
:1038E00087B000240020ADF816000020ADF81400C9
:1038F0005FF000090020ADF812000020ADF81000C4
:1039000000250020ADF80400FF20ADF802000020E3
:10391000ADF80E000020ADF80C00FF20ADF80A0055
:10392000FF20ADF808000020ADF806005FF0000BA6
:1039300000270020DFF8C4170870002082465FFAD5
:103940008AFABAF1800F30DADFF8B4075FFA8AFA40
:103950001AF8000019EB0009DFF8A4075FFA8AFAE9
:103960001AF80000BDF8021080B2884207D2DFF8D2
:1039700090075FFA8AFA1AF80000ADF80200BDF865
:103980000400DFF87C175FFA8AFA1AF8011089B28E
:10399000884207D2DFF868075FFA8AFA1AF800004F
:1039A000ADF804001AF1010AC9E7BDF80400BDF83A
:1039B000021011FA80F038214843642190FBF1F0A5
:1039C0000400DFF83C07DFF83C170978085CA4B274
:1039D00080B2844280F0BB80DFF8280700788246FE
:1039E0005FFA8AFABAF1150F13DBDFF814075FFAF2
:1039F0008AFA1AF8000080B2A4B2A04206D2DFF818
:103A0000080780F800A00120834602E0BAF1010A0D
:103A1000E6E7DFF8F006007882465FFA8AFABAF144
:103A20006C0F13DADFF8D8065FFA8AFA1AF800008A
:103A300080B2A4B2A04206D2DFF8D00680F800A07F
:103A40000120070002E01AF1010AE6E75FFA8BFBAA
:103A5000BBF1010F01D1012000E00020FFB2012FD6
:103A600001D1012100E00021C0B2084210D0DFF8EE
:103A7000980690F90000DFF8941691F9001041FAC9
:103A800080F0022190FBF1F0DFF88416087051E11C
:103A90005FFA8BFBBBF1010F01D1012000E0002098
:103AA000FFB2002F01D1012100E00021C0B2084285
:103AB00014D06C20DFF854160870DFF84C0690F92B
:103AC0000000DFF8481691F9001041FA80F0022159
:103AD00090FBF1F0DFF8381608702BE15FFA8BFBF2
:103AE000BBF1000F01D1012000E00020FFB2012F47
:103AF00001D1012100E00021C0B2084214D01420FD
:103B0000DFF804160870DFF8000690F90000DFF80F
:103B1000FC1591F9001041FA80F0022190FBF1F0C0
:103B2000DFF8EC15087005E1DFF8D8050078DFF85C
:103B3000E0150870DFF8DC050078DFF8D0150870B4
:103B4000DFF8D4050078DFF8C0150870F2E0DFF880
:103B5000B4050078402836DADFF8A80500788246F8
:103B60005FFA8AFABAF1150F64DBDFF894055FFAA1
:103B70008AFA1AF80000A4B280B2844220D2DFF898
:103B80008C0580F800A001200700D0465FFA88F875
:103B9000B8F1150F13DBDFF868055FFA88F818F83D
:103BA000000080B2A4B2A04206D2DFF85C0580F823
:103BB00000800120834602E0B8F10108E6E739E021
:103BC000BAF1010ACCE7DFF83C05007882465FFADB
:103BD0008AFABAF16C0F2DDADFF824055FFA8AFA57
:103BE0001AF80000A4B280B2844220D2DFF818058F
:103BF00080F800A001208346D0465FFA88F8B8F12B
:103C00006C0F13DADFF8F8045FFA88F818F8000090
:103C100080B2A4B2A04206D2DFF8F00480F800809F
:103C20000120070002E018F10108E6E702E01AF1BE
:103C3000010ACCE75FFA8BFBBBF1010F01D1012038
:103C400000E00020FFB2012F01D1012100E000219E
:103C5000C0B2084210D0DFF8B00490F90000DFF8DD
:103C6000AC1491F9001041FA80F0022190FBF1F0C0
:103C7000DFF89C1408705DE05FFA8BFBBBF1010F6D
:103C800001D1012000E00020FFB2002F01D101216D
:103C900000E00021C0B2084214D06C20DFF86C14A0
:103CA0000870DFF8640490F90000DFF8601491F9FF
:103CB000001041FA80F0022190FBF1F0DFF850147F
:103CC000087037E05FFA8BFBBBF1000F01D10120D8
:103CD00000E00020FFB2012F01D1012100E000210E
:103CE000C0B2084214D01420DFF81C140870DFF8AA
:103CF000180490F90000DFF8141491F9001041FA4B
:103D000080F0022190FBF1F0DFF80414087011E05C
:103D1000DFF8F0030078DFF8F8130870DFF8F40339
:103D20000078DFF8E8130870DFF8EC030078DFF8BC
:103D3000D8130870DFF8D40390F90000DFF8C81337
:103D400091F90010401A002811D5DFF8B803007867
:103D5000DFF8BC130870DFF8BC030078DFF8AC13A1
:103D60000870DFF8B4030078DFF89C1308700020B7
:103D700005001FFA89F9802099FBF0F0040000206B
:103D80000600F6B2802E25DAF6B2082E18DBF6B25F
:103D9000782E15DADFF86803F6B23056001BDFF82C
:103DA0007C130870DFF8740390F90000122807DA1A
:103DB000DFF8680390F9000010F1110F00DB6D1CB3
:103DC000DFF83C03F6B2305CDFF85413F6B27054FF
:103DD000761CD6E7A4B23D2C08DBDFF84803007858
:103DE000332803DB0120DFF814130870ADB2472D30
:103DF00014DBA4B2462C11DADFF808030078DFF8F0
:103E000010130870DFF80C030078DFF80013087057
:103E1000DFF804030078DFF8F0120870DFF8E8023A
:103E200090F90000DFF8F01291F90010401A01F04B
:103E300007FB8DF80100DFF8D40290F90000DFF8ED
:103E4000D41291F90010401A01F0FAFA8DF800002E
:103E5000AE4890F90000AC4991F90010401AB14900
:103E60000870A94890F90000AB4991F90010401A78
:103E700001F0E6FAAC490860A44890F90000A549B1
:103E800091F90010401A01F0DBFAA8490860A04837
:103E900000789C490978401A01F0D2FAA4490860D8
:103EA000A1480068052814DAA0480068052810DA3F
:103EB0009F48006805280CDA9E480078401C9D4900
:103EC00008709C480078152806DB14209949087072
:103ED00002E00020974908708D4800783A2813DBEB
:103EE0008B48007845280FDA864800783A280BDBA3
:103EF00084480078452807DA8E480078032803DBD9
:103F000001208D49087002E000208B4908708B4821
:103F100090F90000012837D19DF9010005280BDA3E
:103F200083480068042807DB7E480078232803DAEA
:103F30009DF9000005280FDA9DF90000052823DA15
:103F40007B48006804281FDB7648007823281BDAAA
:103F50009DF90100052817DB6C4890F900005A28EC
:103F600012DA694890F9000027280DDB74480078C0
:103F7000322809DA724800782B2805DB01207149C4
:103F80000870002070490860614800783A2806DB14
:103F90005F480078452802DA00206C4908706948BB
:103FA00090F9000001281AD167480068022816D14C
:103FB0005C480078282807DA5A4800781A2803DB7A
:103FC0000120624908700AE056480078322806DA73
:103FD00054480078292802DB01205D4908705748C1
:103FE00090F90000012843D1594890F900000128B8
:103FF00017D09DF9010004283ADB9DF90000042840
:1040000036DB4B480068052832DA4648007823281A
:104010002EDA4B48007832282ADA494800782B28D3
:1040200026DB4C4890F90000012821D14A48B0F91C
:1040300000004A49B1F90010401A1E2818DA464813
:10404000B0F900004549B1F90010401A10F11D0FF8
:104050000EDB0120424908702A4800782C4908707C
:10406000404A00210020FDF7D4FE002038490870A6
:104070002C4800783C4908703C480470244800787B
:104080003B49087000201E49214A127850540020F4
:104090001B491D4A92F900205054002018491B4A20
:1040A00092F9002050542448007824490870184898
:1040B00000781449087015480078164908701248AD
:1040C000007815490870174800781D490870244881
:1040D0000078284908701D480078274908701A4858
:1040E0000068401C1849086017480068152802DB62
:1040F00014201549086007B0BDE8F08FA615FF1F12
:104100004C0EFF1F1104FF1F1304FF1F1204FF1F9B
:104110001004FF1F1404FF1F1504FF1FB215FF1F1B
:104120004C11FF1FA415FF1F300EFF1F340EFF1F81
:10413000380EFF1FB315FF1FA715FF1FA815FF1F80
:10414000A515FF1FAD15FF1F1804FF1FAB15FF1F9F
:10415000AE15FF1FC415FF1FA015FF1F800BFF1F0B
:10416000A915FF1F1C850000AF15FF1FB015FF1F0D
:10417000B115FF1FAA15FF1FAC15FF1F2DE9FE4F3C
:1041800000245FF000080020ADF80800FF20ADF823
:1041900006000020ADF80A005FF0000900208DF84D
:1041A000020000208DF8010000250020DFF80C152A
:1041B0000870002082465FFA8AFABAF1800F4EDA60
:1041C000DFF8FC045FFA8AFA1AEB000090F880002E
:1041D00058FA80F85FFA8AFABAF11C0F04DB5FFA2A
:1041E0008AFABAF1640F09DBDFF8D4045FFA8AFABD
:1041F0001AEB000090F8800059FA80F9DFF8C0044B
:104200005FFA8AFA1AEB000090F88000BDF80610F9
:1042100080B2884209D2DFF8A8045FFA8AFA1AEB62
:10422000000090F88000ADF80600BDF80800DFF847
:1042300090145FFA8AFA1AEB010191F8801089B2A2
:10424000884209D2DFF878045FFA8AFA1AEB000094
:1042500090F88000ADF808001AF1010AABE7BDF84C
:104260000800BDF8061011FA80F03C214843642193
:1042700090FBF1F004001FFA89F9382099FBF0F067
:10428000ADF80A00DFF8380490F8BF00A4B280B29D
:10429000844280F094803F2082465FFA8AFABAF125
:1042A000080F13DBDFF818045FFA8AFA1AEB000034
:1042B00090F8800080B2A4B2A04204D2D34601207C
:1042C0008DF8020002E0BAF1010AE6E740208246DA
:1042D0005FFA8AFABAF1780F14DADFF8E4035FFACA
:1042E0008AFA1AEB000090F8800080B2A4B2A042D3
:1042F00005D28DF800A001208DF8010002E01AF12E
:10430000010AE5E79DF80200012801D1012000E043
:1043100000209DF80110012901D1012100E00021B8
:10432000C0B208420AD09DF8000050FA8BF002217A
:1043300090FBF1F0DFF88C1308700CE19DF802009F
:10434000012801D1012000E000209DF80110002982
:1043500001D1012100E00021C0B208420DD0782037
:104360008DF800009DF8000050FA8BF0022190FBC0
:10437000F1F0DFF850130870EDE09DF8020000281E
:1043800001D1012000E000209DF80110012901D198
:10439000012100E00021C0B208420BD00820834672
:1043A0009DF8000050FA8BF0022190FBF1F0C54916
:1043B0000870D0E0C4480078C2490870CBE0C24819
:1043C0000078402835DA3F2082465FFA8AFABAF14F
:1043D000080F66DBBA485FFA8AFA1AEB000090F819
:1043E0008000A4B280B2844220D28DF800A00120C7
:1043F0008DF801005FFA8AFA02209AFBF0F00600BD
:10440000F6B2082E11DBAE485FFA8AFA1AEB00000A
:1044100090F8800080B2A4B2A04204D2B34601203A
:104420008DF8020001E0761EEAE73AE0BAF1010AEF
:10443000CBE7402082465FFA8AFABAF1780F30DA89
:104440009F485FFA8AFA1AEB000090F88000A4B245
:1044500080B2844222D2D34601208DF802005FFA56
:104460008AFA1AF17F00022190FBF1F00600F6B201
:10447000782E12DA92485FFA8AFA1AEB000090F866
:10448000800080B2A4B2A04205D28DF80060012065
:104490008DF8010001E0761CE9E702E01AF1010A5B
:1044A000C9E79DF80200012801D1012000E00020A9
:1044B0009DF80110002901D1012100E00021C0B2C6
:1044C000084209D09DF8000050FA8BF0022190FBC1
:1044D000F1F07C4908703EE09DF80200012801D10E
:1044E000012000E000209DF80110002901D10121E8
:1044F00000E00021C0B208420CD078208DF8000006
:104500009DF8000050FA8BF0022190FBF1F06D490C
:10451000087020E09DF80200002801D1012000E091
:1045200000209DF80110012901D1012100E00021A6
:10453000C0B208420BD0082083469DF8000050FA14
:104540008BF0022190FBF1F05E49087003E05E48B9
:1045500000785C490870002005001FFA88F8802068
:1045600098FBF0F004009DF80000B0EB0B005749F9
:10457000087000200700FFB2802F23DAFFB2082F57
:1045800014DBFFB2782F11DA4D48FFB2381890F9DA
:104590008000001B8DF803009DF90300122805DA46
:1045A0009DF9030010F1110F00DB6D1C4448FFB2B0
:1045B000381890F880004649FFB2791881F88000D9
:1045C0007F1CD8E7A4B2332C06DB404800782E28A5
:1045D00002DB0120394908705FFA8BFB3D4890F9F6
:1045E0000000BBEB000000F02BFF8DF805009DF8EC
:1045F0000000394991F90010401A00F021FF8DF8B0
:1046000004003048007830490978401A00F018FF5B
:10461000324908609DF90500042814DA9DF9040068
:10462000042810DA2D48006804280CDA2C48007899
:10463000401C2B4908702A480078152806DB1420F6
:104640002749087002E00020254908701D480078BD
:104650003F2804D100210120FCF7DDFF03E0012108
:104660000120FCF7D8FF00201549164A127851188E
:1046700081F88000002012495FFA8BFB1BEB0101DF
:1046800081F8800000200E499DF80020511881F823
:1046900080000C4800780C4908709DF900000E4914
:1046A00008700C4880F800B0084800780D49087080
:1046B0000D4800780D490870BDE8F78FB615FF1F4B
:1046C0004C0EFF1F1C04FF1F1D04FF1FB415FF1F0E
:1046D0004C11FF1F1F04FF1F1E04FF1F3C0EFF1F76
:1046E000B915FF1FB515FF1FB715FF1FB815FF1F21
:1046F00030B4134C246854F08074114D2C60114C6C
:10470000246854F001040F4D2C600F4C24682100E4
:104710000E4C24684FF47A7594FBF5F404FB00F416
:1047200023005C1822008A4203D2074C2468A2426C
:10473000FBD3054C24689442FBD330BC7047000087
:10474000FCED00E0001000E0041000E02815FF1F61
:1047500010B504002000441E002804D04FF47A70E5
:10476000FFF7C6FFF6E710BDDFF800F0A10CFF1F52
:10477000DFF800F0C90CFF1FBFF34F8F3C48006803
:1047800010F4E0603B49084339490860BFF34F8F9C
:10479000FEE738B504000D002A002100364800F07D
:1047A00053FEFEE738B504000D00210049B2032096
:1047B000FCF7AFFE200032BD10B500240420FCF74A
:1047C00061FF0420FCF794FF002841D10020FCF792
:1047D00005FF0420FCF78CFF012801D10120040013
:1047E0000020FCF723FF254800F02EFE4FF4FA705E
:1047F000FFF7AEFFE4B2012CEBD10420FCF778FF09
:104800000028E6D10420FCF773FF002806D1002021
:10481000FCF70CFF6420FFF79BFFF3E70420FCF795
:1048200067FF012806D10020FCF700FF3220FFF7C8
:104830008FFFF3E7124800F007FEFFF795FF6420B3
:10484000FFF786FF0020FFF793FFFFF795FFC0E714
:1048500010BD10B50B4804780B48E4B20F2101FBE2
:104860000402E4B22100094800F0EEFD10BD000092
:104870000CED00E00400FA0558820000B48300004B
:104880008C82000004ED00E03004FF1F2C8000004B
:1048900070B504000D0016004FF480712000C0B206
:1048A000FCF73AFF6DB2002D11D16048E4B26111FE
:1048B00050F821005D49E4B2621151F822104969B3
:1048C000012214F01F039A409143416136E057489A
:1048D000E4B2611150F821005449E4B2621151F878
:1048E00022104969012214F01F039A4011434161CB
:1048F000F6B2002E11D14D48E4B2611150F82100FA
:104900000068012114F01F02914088434749E4B236
:10491000621151F82210086010E04448E4B26111BD
:1049200050F821000068012114F01F029140084353
:104930003E49E4B2621151F82210086070BD38B5EA
:1049400004000D003948E4B2611150F821004069BB
:1049500014F01F010200CA40D00703D46321344879
:10496000FFF717FFEDB2002D11D13048E4B261110D
:1049700050F821000068012114F01F029140884383
:104980002A49E4B2621151F82210086010E0274869
:10499000E4B2611150F821000068012114F01F02F7
:1049A000914008432149E4B2621151F82210086095
:1049B00031BD10B504001D48E4B2611150F821006A
:1049C000406914F01F010200CA40D00703D47B21C4
:1049D0001748FFF7DEFE1548E4B2611150F82100D8
:1049E000012114F01F029140C16010BD10B50400F8
:1049F0000E48E4B2611150F82100406914F01F0123
:104A00000200CA40D00703D58C210948FFF7C1FE38
:104A10000648E4B2611150F82100006914F01F014A
:104A20000200CA4012F0010010BD00009C0BFF1FE5
:104A3000D48000002DE9F84F04000D0016001F007F
:104A400064B2002C0DD064B2012C02D064B2022CEE
:104A500002D16DB2022D04DB2E21DFF8C404FFF772
:104A600098FEDFF8C00400684FF47A7148434010A4
:104A7000B04204D22F21DFF8A804FFF78AFE64B207
:104A8000002C03D0022C66D049D380E0DFF89804D4
:104A9000006850F08070DFF8901408606DB2002D4F
:104AA0000BD0022D15D00ED3042D1ED017D3062DFA
:104AB00027D020D3072D2AD02FE04FF4806141204A
:104AC000FCF72AFE2AE04FF480614220FCF724FE26
:104AD00024E04FF480614320FCF71EFE1EE04FF4FB
:104AE00080614420FCF718FE18E04FF44071072065
:104AF000FCF712FE12E04FF480616520FCF70CFE1B
:104B00000CE04FF480616620FCF706FE06E04FF4EF
:104B100080616720FCF700FE00E0D9E037E0DFF8B5
:104B20000804006850F00070DFF8FC1308606DB2F4
:104B3000002D02D0012D06D00BE04FF440710C2067
:104B4000FCF7EAFD06E04FF440710D20FCF7E4FDB0
:104B500000E0BDE01BE0DFF8D403006850F0807097
:104B6000DFF8C81308606DB2002D02D0012D06D009
:104B70000BE04FF440713220FCF7CEFD06E04FF41D
:104B800040713320FCF7C8FD00E0A1E0FFE7DFF84B
:104B9000940300684FF47A714843401080465FEAFE
:104BA0001840B0FBF6F08146002082461FFA89F9D2
:104BB000484650FA0AF0012802DB1AF1010AF5E72B
:104BC0005FFA8AFABAF1080F05DB4FF48671DFF855
:104BD0005003FFF7DEFD404630FA0AF0B0FBF6F076
:104BE000814664B2002C03D0022C18D00CD322E0F2
:104BF0001FFA89F919F1010000FB07F04FF47A71EF
:104C0000B0FBF1F0834616E01FFA89F919F10100B3
:104C100000FB07F06421B0FBF1F083460BE01FFAC4
:104C200089F919F1010000FB07F042F21071B0FBA5
:104C3000F1F08346FFE7DFF8F80264B250F8240091
:104C40006DB210EBC500DFF8E81264B251F8241021
:104C50006DB211EBC501C96831F00401C160DFF824
:104C6000D00264B250F824006DB210EBC5002821C8
:104C7000C1605FFA8AFA1AF0070050F02800DFF8E6
:104C8000B01264B251F8241008601FFA89F9DFF8F5
:104C9000A00264B250F82400C0F808900020DFF8A9
:104CA000901264B251F82410C864DFF8840264B230
:104CB00050F824006DB210EBC5001FFA8BFBC0F852
:104CC00010B00020DFF8681264B251F82410486078
:104CD000BDE8F18F2DE9F04104000D0016005FF0F2
:104CE000000864B2002C0ED064B2012C02D064B271
:104CF000022C02D16DB2022D05DB40F24711DFF824
:104D00002002FFF746FD64B2002C03D0022C14D021
:104D10000AD31DE0B6F57A7F05D94FF4A671DFF806
:104D20000002FFF736FD13E0652E05D34FF4A8719E
:104D3000DFF8EC01FFF72DFD0AE042F21170864228
:104D400005D34FF4AA71DFF8D801FFF722FDFFE782
:104D5000DFF8DC0164B250F8240080688046B8F1C6
:104D6000000FF5D064B2002C03D0022C14D00AD36B
:104D70001CE018F1010000FB06F04FF47A71B0FB63
:104D8000F1F0070012E018F1010000FB06F06421C9
:104D9000B0FBF1F0070009E018F1010000FB06F09C
:104DA00042F21071B0FBF1F00700FFE7DFF880017D
:104DB00064B250F824006DB210EBC5000761BDE885
:104DC000F08110B5040064B2012C07D064B2022C4B
:104DD00004D04FF435715248FFF7DBFC64B2200079
:104DE000012802D0022811D021E04F48006850F07D
:104DF00000704D4908604FF4E0610C20FCF78CFC1A
:104E00004FF4E0610D20FCF787FC15E0474800688F
:104E100050F08070454908604FF4C0610A20FCF7EB
:104E20007BFC4FF4C0610A20FCF776FC04E04FF4F1
:104E300047713B48FFF7ADFC3D4864B250F8240091
:104E4000406D50F004003A4964B251F824104865AE
:104E5000374864B250F82400D0F8800050F00800C1
:104E6000334964B251F82410C1F880000020304961
:104E700064B251F82410C8644FF6FF702C4964B234
:104E800051F8241088602A4864B250F82400D0F801
:104E9000800050F00100264964B251F82410C1F896
:104EA0008000234864B250F82400406D50F00100A7
:104EB0001F4964B251F82410486500201C4964B2AF
:104EC00051F82410486010BD38B5040064B2012CBC
:104ED00007D064B2022C04D040F239311048FFF7F9
:104EE00058FC134864B250F82400406805002800BC
:104EF00000B232BD10B5040064B2012C07D064B218
:104F0000022C04D040F247310548FFF742FC002054
:104F1000074964B251F82410486010BD0000000039
:104F2000D08100003015FF1F3C80044030800440D9
:104F3000900BFF1F70B504000D0016002B48006891
:104F400050F001002949086064B2012C05D14FF4EA
:104F5000C0611320FCF7E0FB12E064B2022C05D123
:104F60004FF480614520FCF7D7FB09E064B2012CC7
:104F700006D064B2022C03D032211D48FFF709FC91
:104F800000201C49086005201B490860ADB21B4881
:104F9000056076B2012E01D1082000E0002064B245
:104FA000210111F03001084350F04300114908601D
:104FB00070BD10490968090603D54FF6FF71080056
:104FC00005E000210E4A11600D490968080080B211
:104FD00070470848006840084000064908600548D6
:104FE000006850F0010003490860704738800440B1
:104FF0000881000000000440040004400800044050
:105000000C0004405FF0FF0C1CEAD05114BF614556
:1050100006E0C110400721F0E04101F16051704706
:1050200079B900F0004100020AD0B0FA80FC00FA21
:105030000CF001F16051A1EB0C5101EBD0214005C6
:10504000704741020CBF40F4E0016FF00001002006
:1050500070470000B0B581EA030C0CF0004C40F240
:10506000FF7515EA11541DBF15EA1357AC42AF4244
:1050700039E0E41923EA455343F48013C90241F0AF
:10508000004141EA505EC7021100A7FB020200285E
:105090004FF00000EEFB01204FF00001E3FB072181
:1050A00018BF42F00102401800214941E3FB0E0104
:1050B000A4F580640F0302D252004041494154F1EB
:1050C00001046CDD470872F1004250F1000051EB21
:1050D0000451A1F580115CBF41EA0C01B0BD4CEA5E
:1050E00005510020B0BD05EA1357AC4214BFAF42D2
:1050F00041E050EA410E1CBF52EA430E02E0614615
:105100000020B0BD24423C441BD15FEA070EF6D01C
:10511000090302BF01460020AEF1140EB1FA81F777
:10512000AEEB070401FA07FE0C37C7F1200100FAC5
:1051300007F7C8404EEA000E23EA455343F48013B4
:10514000A2E733F00043B3FA83F704BFB2FA82FE5A
:1051500077440B3FE41BB7F1200E2FBF02FA0EF38A
:10516000BB40C7F1200E22FA0EFE38BF43EA0E0301
:10517000BA40641C82E750EA410E14BF52EA430E63
:105180006FF000014FF4001717EB430F8ABF194669
:1051900017EB410FB5E74CEA05510020B0BDD4F143
:1051A0000104B4F120070FDAC4F12007520828BF28
:1051B00042F0010210FA07F501FA07F7E1BF2A43AE
:1051C000E0403843E1400FE0352C98DCC7F1200483
:1051D00052EA400220FA07F218BF42F0010231FA07
:1051E00007F0A1400A43002172F1004250F1000093
:1051F00051EB0C01B0BD00004FEAF17CBCF1E04C7A
:105200002CBFBCF5001F11E05FEA4C0C34BFBCF1B1
:105210007F5F2EE05FEA9C0C4FEA0C1C4FEA3C0CCF
:10522000C10071F100414CEB50707047C90241EA76
:105230005051C00218BF41F0010141F000414FEA56
:105240006C50C0F10900212810D240EACC7CCCF18E
:10525000200C11FA0CF070F10040CCF1200C21FA76
:105260000CF00CF0004C40EB0C0070474FEACC7097
:105270007047490011F5001F04D84FEACC10FF30E9
:10528000C0057047C81770474FF0807C1CEB400F7B
:1052900094BF1CEB410F05E040EA010C5FEA4C0CA7
:1052A00001D28142704718BF88427047010040F127
:1052B0000980F446404200F005F851F00041604793
:1052C000010000BF09D0B0FA80F18840C91CC1F5C7
:1052D0008461090501EBD02140057047F0B44FF01F
:1052E000004591EA030C44BF6B4000F0C9B800BF11
:1052F000841A71EB030603D2001BB14112197341EA
:105300004FF4001C1CEB410F34BF7CEB430443E023
:105310000C0DA4EB1356352E50DC45EAC323DB0AF3
:1053200045EAC121C912B6F120050DDD63FA05F683
:10533000EB4086EA0305124218BF45F00105C0188C
:1053400051F100010CD213E062FA06F5F24055402B
:10535000F3415A40B340F3405A408018594107D3B3
:1053600049085FEA30005FEA350528BF45F00105CE
:1053700001F58011420875F1004250F1000041EB47
:105380000451F0BC4FF4001C1CEB410F38BF7047B8
:105390000020090D090570471CEB410F10D252EA9D
:1053A00043060BD0BCEB410F05D80C0DAB43661E7A
:1053B000342EB5DD02E0AB4380185941F0BC704794
:1053C000F0BC704738B504000D00002D03D1242136
:1053D0001748FFF7DEF91748006850F40000154938
:1053E0000860002014490860681E144964B2220154
:1053F0005050124864B210EB0410C06850F0010025
:105400000E4964B211EB0411C8600C4864B210EB91
:105410000410806840084000084964B211EB041190
:1054200088600320054964B211EB0411886031BD26
:10543000008200003C800440007003400071034083
:10544000002848BF404270470EB400B582B003A99F
:105450000091024600AB0121034878440A3000F075
:10546000C5F806BC5DF810FB292F0000F0B44FF022
:10547000004591EA030F44BF6B40FFF739BF00BFFF
:10548000841A71EB030604D26E40001BB14112195D
:1054900073414FF4001C1CEB410F34BF7CEB4306FF
:1054A00084E00C0DA4EB1356362E7DDC012E43DC7C
:1054B00045EAC32343EA525312BFD20292025B0869
:1054C000240545EAC12141EA5051D2EBC02099415F
:1054D00025D407D1B0FA80F610FA06F164D0002086
:1054E000203608E0B1FA81F6B140C6F1200220FA78
:1054F00002F21143B0404FEAF474B4EB465434F076
:1055000001064FEA74040AD8D6F50016760D04F0A9
:105510000044F04061FA06F25040F1404840C00AB1
:1055200040EA415021F0004128BF5FEA500550F1A8
:10553000000044EBD12137E045EAC323DB0A45EA0A
:10554000C121C90AB6F120050EDD42EA0242120C61
:10555000C5F1200603FA06F6EB4042EA06056D4265
:10556000984161F100010DE062FA06F5F240554004
:1055700063FA06FC82EA0C02F3405A406D42904105
:1055800061EB030111F4801F05D1641E620502D096
:105590006D004041494121F48011430875F10043F9
:1055A00050F1000041EB0451F0BC70471CEB410F7F
:1055B00015D223F0004352EA43060BD04FEA4C0CBD
:1055C000BCEB410F04D80C0D661E342EB7DDEBE7A3
:1055D000801A994150EA410608BF0021E4E708BF5C
:1055E0001CEB430F28BF6FF00001DDE72DE9F04F02
:1055F000A1B08046002017461D4602910B900DF188
:10560000440A6FF000490AE017F8011B0298C047EE
:105610000028029000F0AB820B98401C0B90387869
:1056200008B90B98A5E22528EED100200590069038
:105630000790089009900A9001E040F0010017F8E7
:10564000011F2029F9D023290DD02B2904D02D2981
:1056500006D030290AD00CE040F0020080B2EEE71C
:1056600040F00400FAE740F00800F7E740F01000CF
:10567000F4E72A290ED12968296051F8042B296002
:10568000002A0D9204D5514240F004000D9180B2E1
:105690007F1C11E000210D9109E00D99494505D0CD
:1056A00001EB810302EB430130390D917F1C3A7805
:1056B000A2F130010A29F0D339782E2903D04FF016
:1056C000FF310C911DE017F8011F2A2907D1296825
:1056D00029607F1C51F8042B29600C9211E00021F5
:1056E0000C9109E00C99494505D001EB810302EBCF
:1056F000430130390C917F1C3A78A2F130010A291C
:10570000F0D3ADF838000FF66440397800F03CFE75
:1057100008B117F8010B8DF83A009DF83A00682897
:1057200002BF39786829622005D06C2804BF387818
:105730006C2803D171208DF83A007F1C11A80490C9
:1057400017F8014BB4F1250029D01C3800F0C280B5
:10575000001F022840F2BE80133800F0E3800938B1
:1057600000F0B880801E00F04A81401E00F02381C6
:10577000401E022840F2AE80001F00F01C81401F36
:1057800079D0401E00F0CE80401E24D0C01E0BD029
:10579000801E00F0C780C01E00F0C48039E12520C3
:1057A0008DF8440001203DE12868286050F8046B22
:1057B000286003960C9C002C04D5304600F0F0FDC8
:1057C000044606E022460021304600F005FE00B106
:1057D000841B069427E1296829603C2451F8040BB6
:1057E00029600021CDE9000111A80390DDE9000145
:1057F000049E11B908B90C9AB2B10206120FA0EBBF
:1058000002123032D2B2631E3A2AA8BF27320009F0
:1058100040EA017009099A5508BF00281C4603D0C8
:10582000039AA3199A42E8D3A0190390C4F13C014A
:105830000C980691814209DA401A08904FF6EF71F0
:10584000BDF838000840ADF83800ECE0002840F121
:10585000EA809DF8380000F01400102840F0E38042
:105860000D98059A801A089A801A441A012CC0F2E1
:10587000DA800894D7E09DF83A0062281AD06828A8
:1058800006D06A280CD06C281CD0712808D019E0EA
:105890002868286050F8041B28600B980880C2E034
:1058A0002868286050F8042B28600B98C117C2E9BB
:1058B0000001B8E02868286050F8041B28600B98A5
:1058C0000870B0E02868286050F8041B28600B9826
:1058D0000860A8E02868C01D20F007022A60D2E90D
:1058E000000108322A60CDE90001002902D505989F
:1058F0002D210AE0BDF83800810702D505982B213B
:1059000003E0C00705D50598202100F80A10401CC7
:10591000059011A8059908180390214600A800F0E9
:10592000E5F980E09DF83A006C280DD0712818BF89
:105930006A2809D12868C01D20F007022A60D2E930
:10594000000108322A6005E02968296051F8040B3B
:1059500029600021CDE900019DF83A00682803D1B3
:10596000DDE9000180B20BE0622803D1DDE900012E
:10597000C0B205E0742818BF7A2804D1DDE900011F
:105980000021CDE900019DF8380000072ED5DDE9A2
:105990000001002908BF002828D044F02000782802
:1059A00024D10598302100F80A10401C411C0591B3
:1059B00000F80A401AE09DF83A00294600F0DCF8A9
:1059C000CDE90001002902DA05982D210AE0BDF891
:1059D0003800810702D505982B2103E0C00705D5C3
:1059E0000598202100F80A10401C059011A805997F
:1059F00008180390214600A800F0F5F813E00120F4
:105A000005902868286050F8041B28608DF8441021
:105A100009E025208DF84400012005901CB18AF88A
:105A20000140022005900D980599401A0899401AE6
:105A30000699401A0999401A0799401A0A99441A76
:105A40009DF83800400710D420208DF84000002633
:105A500009E0012310AA00A9404600F06FFC0028CD
:105A600040F08580761CA642F3DB059E0DF1440BC9
:105A70000AE01BF8011B0298C0470028029076D06C
:105A80000B98401C0B90761E002EF2D130208DF822
:105A900040004FF0000B089E09E0012310AA00A966
:105AA000404600F04BFC002861D10BF1010BB345DF
:105AB000F3DB069EDDF80CB00AE01BF8011B029830
:105AC000C0470028029052D00B98401C0B90761EC5
:105AD000002EF2D130208DF840004FF0000B099ECF
:105AE00009E0012310AA00A9404600F027FC002885
:105AF0003DD10BF1010BB345F3DB03980699079EEB
:105B000001EB000B09E01BF8011B0298C047029053
:105B100068B30B98401C0B90761E002EF3D13020FA
:105B20008DF840004FF0000B0A9E08E0012310AAF8
:105B300000A9404600F002FCC8B90BF1010BB345C7
:105B4000F4DB9DF8380040077FF569AD20208DF823
:105B50004000002600E0761CA642BFF660AD01239F
:105B600010AA00A9404600F0E9FB0028F3D04FF04E
:105B7000FF3021B0BDE8F08F622826D068281DD004
:105B80006A2808D06C2827D0712804D0742823D024
:105B90007A280CD020E00868C01D20F007000860BB
:105BA000D0E90023083008601946104670470A689B
:105BB0000A6052F8040B0A60002170470A680A6004
:105BC00052F8040B0A6000B20BE00A680A6052F84F
:105BD000040B0A6040B204E00A680A6052F8040B41
:105BE0000A60C11770472DE9FA4E05460A462F692B
:105BF0006F2A08BF082405D041F02000782814BF80
:105C00000A2410243C26D5E90001642A18BF692A19
:105C100081468A4605D1002903DAD9F100096AEBE9
:105C20004A0ABAF1000F08BFB9F1000F0CD1286B76
:105C300050B9082C36D195F83800000732D53020FD
:105C40003B2687F83B002DE0E317484651462246A5
:105C500000F0EEFBA4FB0023A9EB02023032D2B22B
:105C6000A6F1010B3A2A5E4603DB9DF80030513B5A
:105C70009A1881465FEA010A0BF8072008BFB9F1BC
:105C8000000F03D0E868F1198842DDD3082C09D150
:105C900095F83800000705D5F05D302802D0761E53
:105CA0003020F055C6F13C00A861F119E960296B7C
:105CB000884208DA081A28624FF6EF71288F0840E8
:105CC0002887BDE8F38E00290ED595F8381001F02D
:105CD0001401102908D1696B6A69891A2A6A891A1C
:105CE0000E1A012EA8BF2E62BDE8F38E2DE9F24FE9
:105CF00004468EB0D4E90001CDE9020104AF9DF85D
:105D0000380040F0200BBBF1610F0AD0206B002857
:105D100048BF062004D408BFBBF1670F01D10120A2
:105D200020636168C1F30A5040F2FF7290421CD1B7
:105D3000080304BF2068002809D10320A0619DF852
:105D4000380061381A2836D30FF2346108E0032096
:105D5000A0619DF8380061381A2829D30FF2186124
:105D6000E0680322FBF736FABEE1012816DA204686
:105D700000F0D5FB012811DB00250020BBF1610FED
:105D800020D1E168302201F8012B4A1CE2609DF825
:105D90003820612A0CBF782258220FE0626840F256
:105DA000FE3161F31E52451A62604FF0FF30E5E7A5
:105DB0000FF2C051D4E70FF2C451D1E70A70616904
:105DC000891C616110B90026002584E1BBF1610FD7
:105DD00040F09780206BD4E900AB00284CBF21260F
:105DE000461CDDE902010022002300F0B9FB36B2B7
:105DF0003ABF8BF00040CDE902A0CDE902AB06F13D
:105E000001082D1F8DF810200DF1110700E0C71DAE
:105E1000B8F1010F33DBDDE902010022002300F0BD
:105E2000B7FB2CD21C2102A800F0CAFBDDE902015D
:105E300000F04EFCA8F10708B8F1010F814609DB1C
:105E4000FFF734FA02460B46DDE90201FFF70EFBCD
:105E5000CDE90201F81D072105E009F00F0200F865
:105E6000012D4FEA2919B9F1010F01DB491EF4D5C3
:105E7000491E5CBF002200F8012DF9D5C7E70DF1DE
:105E80001100391AB142B8BF0E4636B230000DF1DA
