:10000000F8FF0020110400000F2B00000F2B000050
:100010000F2B00000F2B00000F2B00000F2B0000F8
:100020000F2B00000F2B00000F2B00000F2B0000E8
:100030000F2B00000F2B00000F2B00000F2B0000D8
:100040000F2B00000F2B00000F2B00000F2B0000C8
:10040000FFFFFFFFFFFFFFFFFFFFFFFFFEFFFFFFFD
:1004100062B604F091FFFEE72DE9F04FA1B08046EF
:10042000002017461D4602910B900DF1440A6FF013
:1004300000490AE017F8011B0298C0470028029003
:1004400000F0AB820B98401C0B90387808B90B98E1
:10045000A5E22528EED1002005900690079008908F
:1004600009900A9001E040F0010017F8011F2029CF
:10047000F9D023290DD02B2904D02D2906D03029DD
:100480000AD00CE040F0020080B2EEE740F0040039
:10049000FAE740F00800F7E740F01000F4E72A29F7
:1004A0000ED12968296051F8042B2960002A0D9289
:1004B00004D5514240F004000D9180B27F1C11E040
:1004C00000210D9109E00D99494505D001EB81030B
:1004D00002EB430130390D917F1C3A78A2F13001D3
:1004E0000A29F0D339782E2903D04FF0FF310C912F
:1004F0001DE017F8011F2A2907D1296829607F1CF0
:1005000051F8042B29600C9211E000210C9109E0B4
:100510000C99494505D001EB810302EB43013039C9
:100520000C917F1C3A78A2F130010A29F0D3ADF882
:1005300038000FF66440397800F04CFE08B117F827
:10054000010B8DF83A009DF83A00682802BF39780F
:100550006829622005D06C2804BF38786C2803D144
:1005600071208DF83A007F1C11A8049017F8014BF8
:10057000B4F1250029D01C3800F0C280001F0228E9
:1005800040F2BE80133800F0E380093800F0B880F4
:10059000801E00F04A81401E00F02381401E022888
:1005A00040F2AE80001F00F01C81401F79D0401E39
:1005B00000F0CE80401E24D0C01E0BD0801E00F064
:1005C000C780C01E00F0C48039E125208DF84400AA
:1005D00001203DE12868286050F8046B28600396EC
:1005E0000C9C002C04D5304600F000FE044606E0CA
:1005F00022460021304600F015FE00B1841B06940F
:1006000027E1296829603C2451F8040B2960002166
:10061000CDE9000111A80390DDE90001049E11B9A4
:1006200008B90C9AB2B10206120FA0EB02123032D6
:10063000D2B2631E3A2AA8BF2732000940EA0170ED
:1006400009099A5508BF00281C4603D0039AA3192C
:100650009A42E8D3A0190390C4F13C010C9806918A
:10066000814209DA401A08904FF6EF71BDF8380060
:100670000840ADF83800ECE0002840F1EA809DF831
:10068000380000F01400102840F0E3800D98059A1F
:10069000801A089A801A441A012CC0F2DA80089451
:1006A000D7E09DF83A0062281AD0682806D06A2858
:1006B0000CD06C281CD0712808D019E0286828605C
:1006C00050F8041B28600B980880C2E02868286056
:1006D00050F8042B28600B98C117C2E90001B8E05C
:1006E0002868286050F8041B28600B980870B0E058
:1006F0002868286050F8041B28600B980860A8E060
:100700002868C01D20F007022A60D2E900010832E3
:100710002A60CDE90001002902D505982D210AE0C3
:10072000BDF83800810702D505982B2103E0C007EA
:1007300005D50598202100F80A10401C059011A845
:10074000059908180390214600A800F0E5F980E01B
:100750009DF83A006C280DD0712818BF6A2809D17D
:100760002868C01D20F007022A60D2E90001083283
:100770002A6005E02968296051F8040B29600021EE
:10078000CDE900019DF83A00682803D1DDE90001B8
:1007900080B20BE0622803D1DDE90001C0B205E0C0
:1007A000742818BF7A2804D1DDE900010021CDE9C1
:1007B00000019DF8380000072ED5DDE90001002971
:1007C00008BF002828D044F02000782824D10598BC
:1007D000302100F80A10401C411C059100F80A4025
:1007E0001AE09DF83A00294600F0DCF8CDE9000156
:1007F000002902DA05982D210AE0BDF838008107AA
:1008000002D505982B2103E0C00705D505982021C6
:1008100000F80A10401C059011A8059908180390CB
:10082000214600A800F0F5F813E0012005902868A3
:10083000286050F8041B28608DF8441009E025203A
:100840008DF84400012005901CB18AF80140022077
:1008500005900D980599401A0899401A0699401A72
:100860000999401A0799401A0A99441A9DF83800C4
:10087000400710D420208DF84000002609E0012315
:1008800010AA00A9404600F06FFC002840F08580C7
:10089000761CA642F3DB059E0DF1440B0AE01BF823
:1008A000011B0298C0470028029076D00B98401C8C
:1008B0000B90761E002EF2D130208DF840004FF0C4
:1008C000000B089E09E0012310AA00A9404600F091
:1008D0004BFC002861D10BF1010BB345F3DB069E05
:1008E000DDF80CB00AE01BF8011B0298C047002895
:1008F000029052D00B98401C0B90761E002EF2D125
:1009000030208DF840004FF0000B099E09E00123D4
:1009100010AA00A9404600F027FC00283DD10BF1A9
:10092000010BB345F3DB03980699079E01EB000B1F
:1009300009E01BF8011B0298C047029068B30B98AE
:10094000401C0B90761E002EF3D130208DF8400015
:100950004FF0000B0A9E08E0012310AA00A94046B0
:1009600000F002FCC8B90BF1010BB345F4DB9DF8B4
:10097000380040077FF569AD20208DF84000002643
:1009800000E0761CA642BFF660AD012310AA00A9C4
:10099000404600F0E9FB0028F3D04FF0FF3021B0D3
:1009A000BDE8F08F622826D068281DD06A2808D0BC
:1009B0006C2827D0712804D0742823D07A280CD032
:1009C00020E00868C01D20F007000860D0E900237F
:1009D000083008601946104670470A680A6052F8E5
:1009E000040B0A60002170470A680A6052F8040B81
:1009F0000A6000B20BE00A680A6052F8040B0A6051
:100A000040B204E00A680A6052F8040B0A60C11799
:100A100070472DE9FA4E05460A462F696F2A08BF2E
:100A2000082405D041F02000782814BF0A2410249F
:100A30003C26D5E90001642A18BF692A81468A4606
:100A400005D1002903DAD9F100096AEB4A0ABAF1A3
:100A5000000F08BFB9F1000F0CD1286B50B9082C5A
:100A600036D195F83800000732D530203B2687F87C
:100A70003B002DE0E31748465146224600F0FEFBBE
:100A8000A4FB0023A9EB02023032D2B2A6F1010B83
:100A90003A2A5E4603DB9DF80030513B9A188146A6
:100AA0005FEA010A0BF8072008BFB9F1000F03D075
:100AB000E868F1198842DDD3082C09D195F838008F
:100AC000000705D5F05D302802D0761E3020F055A5
:100AD000C6F13C00A861F119E960296B884208DA87
:100AE000081A28624FF6EF71288F08402887BDE862
:100AF000F38E00290ED595F8381001F01401102955
:100B000008D1696B6A69891A2A6A891A0E1A012E34
:100B1000A8BF2E62BDE8F38E2DE9F24F04468EB0D9
:100B2000D4E90001CDE9020104AF9DF8380040F09E
:100B3000200BBBF1610F0AD0206B002848BF0620B4
:100B400004D408BFBBF1670F01D1012020636168A5
:100B5000C1F30A5040F2FF7290421CD1080304BF57
:100B60002068002809D10320A0619DF83800613871
:100B70001A2836D30FF2346108E00320A0619DF8F3
:100B8000380061381A2829D30FF21861E06803226F
:100B900000F0ECFBBEE1012816DA204600F021FC53
:100BA000012811DB00250020BBF1610F20D1E16895
:100BB000302201F8012B4A1CE2609DF83820612A9E
:100BC0000CBF782258220FE0626840F2FE3161F3D8
:100BD0001E52451A62604FF0FF30E5E70FF2C05138
:100BE000D4E70FF2C451D1E70A706169891C6161D1
:100BF00010B90026002584E1BBF1610F40F0978019
:100C0000206BD4E900AB00284CBF2126461CDDE94F
:100C100002010022002300F005FC36B23ABF8BF03F
:100C20000040CDE902A0CDE902AB06F101082D1F7D
:100C30008DF810200DF1110700E0C71DB8F1010F6C
:100C400033DBDDE902010022002300F003FC2CD29B
:100C50001C2102A800F016FCDDE9020100F09EFC58
:100C6000A8F10708B8F1010F814609DB00F0C2FCCA
:100C700002460B46DDE9020100F0D4FCCDE9020199
:100C8000F81D072105E009F00F0200F8012D4FEAD9
:100C90002919B9F1010F01DB491EF4D5491E5CBFCA
:100CA000002200F8012DF9D5C7E70DF11100391A1E
:100CB000B142B8BF0E4636B230000DF111072FD445
:100CC000884206DA04A9411849780829A8BF0F21EB
:100CD00000DA002104AA821800E0761E12F8013919
:100CE000401E8B42F9D00F2904D104A941184A783B
:100CF000521C4A70002802D504AF761C2D1D36B256
:100D0000701E0DD4C1190A783032D2B23A2A03DBF0
:100D10009DF838303A3B9A18401E01F80129F2D567
:100D2000206B002840F1ED80701E2063E9E0DDE9D2
:100D300002010022002300F075FB3CBF81F000415E
:100D4000CDE902012DB247F2975068434B49DFF8D5
:100D5000309190FBF1F52DB2C5F1070ABAF1010F00
:100D600090461CDBDDE902675FEACA7007D54246A0
:100D70004B463046394600F015FD06460F464046C4
:100D8000494642464B464FEA6A0A00F00BFDBAF16B
:100D9000000F80468946E7D1CDE9026724E0CAF119
:100DA000000A0026374F14E05FEACA7007D54246B2
:100DB0004B463046394600F0F5FC06460F464046A5
:100DC000494642464B4600F0EDFC4FEA6A0A80462F
:100DD0008946BAF1000FE7D1DDE9020132463B4610
:100DE00000F0B2FDCDE90201BBF1660F216BDFF827
:100DF00098900CBF05F10A0006204618142EA8BFD3
:100E0000132630208DF810000DF11107012E3DDB67
:100E1000DDE9020100F0D8FB07F1080104220A23F2
:100E2000B0FBF3F303EB8307A0EB4700303001F88E
:100E3000010C0A20B3FBF0F000EB8007A3EB4703A3
:100E40003033521E01F8023DE9D1083E012E01F176
:100E50000807DBDBDDE9020100F0B6FB00F0D4FBA4
:100E600002460B46DDE9020100F0DCFB00224B46A6
:100E700000F098FCCDE90201CAE700BFA08601009E
:100E8000000024400000F03F84D797410DF111008D
:100E9000381A0DF1110702E0401E6D1E7F1C3978D3
:100EA0003029F9D0BBF1660F02D12DB2691C04E0E4
:100EB000BBF1650F0CBF01210021226B8E1836B2E9
:100EC000B042B8BF064636B231001AD4814204DAC5
:100ED000C85D3528A8BF392000DA3020CA19521E53
:100EE00000E0761E12F80139491E8342F9D03928F4
:100EF00002D1C85D401CC855002902D57F1E761C52
:100F00006D1C2DB29DF83810009533B23A4620463C
:100F100000F003F80FB0BDE8F08F2DE9F04786B080
:100F200006468A4690461D4600F057FE012D406A4F
:100F3000376B90F8009002DA01250FF274284AF01E
:100F40002000BDF93840662808BF641C12D067280D
:100F500076D114F1040F79DBBC4277DA96F83800C9
:100F6000641C000702D4BD42B8BF2F4624B23F1B09
:100F700048BF002724B2F068B169012C21DA4A1C6D
:100F800030230B54012F03DA96F83810090702D5E5
:100F900002F80090521CE742B8BF7C4224B2E71925
:100FA0006142AF42B2617162B8BF3D46B3692DB2D2
:100FB000F5612A464146181800F0D8F9781BB0624E
:100FC000BBE00818A54216DA2A46414600F0CEF9E1
:100FD000B1696918601B012FB161706203DA96F87C
:100FE0003800000705D5F06801F80090F069401C52
:100FF000F061B762A1E02246414600F0B7F9B0695E
:1010000020182D1B012F03DA96F83810090703D595
:10101000F16800F80190401CB0612DB2AF42B8BF3A
:101020003D46F068B3692DB22A4604EB0801181852
:1010300000F09CF9B0692818B061781B70627CE000
:10104000BAF1610F14D14FF0700A16E0BD4204DA14
:1010500096F83810090758BF2F467F1E48BF002753
:10106000BAF1670F14BF4FF0450A4FF0650A04E06C
:10107000BAF1410F08BF4FF0500AB169F06818F893
:10108000013B0B544A1C012F05DA96F8381009076A
:1010900058BFB26115D502F80090531C012FB361FF
:1010A0000FDB6D1E2DB2AF42B8BF3D462DB22A46B2
:1010B0004146181800F05AF9B0692818B061781B39
:1010C0007062F068B1690918200081F800A004D4AA
:1010D0002B20487001F1020804E02D224A7001F132
:1010E00002086442002502AF08E00A2200A800F0CE
:1010F0008DFD019807F8010B6D1C009C21B20129A0
:10110000F3DA022D06DA4AF02000652804BF302009
:1011100008F8010B4DB9302008F8010B07E06D1EEF
:1011200002A8285C303008F8010B012DF7DAF068CE
:10113000B1690818A8EB0000F06196F8380000F0DB
:10114000140010280DD17069B1690818716A081867
:10115000F1690818B16A0818716B8842BCBF081A97
:10116000306206B0BDE8F087F8B504460D46164675
:101170001F46002004E0E86A401CE8627F1E002051
:1011800047B116F8011BA868A0470028A860F2D153
:101190004FF0FF30F2BD0000686A6C747A4C0000BA
:1011A0006E616E004E414E00696E6600494E46000B
:1011B000300050F8041B61B150F8042BD30744BF32
:1011C000A9F101039A180023091F42F8043BFAD140
:1011D000EFE770470278C9B28A421AB11CBF10F813
:1011E000012FF9E718BF0020704702FD00F101034D
:1011F000810704D010F8011B89B18107FAD1026878
:10120000B2F10131914311F0803F04BF50F8042F37
:10121000F6E710F8011B11B110F8011BFBE7C01A2B
:101220007047FD02C9B2830706D0521E22D310F8C0
:10123000013B9942F7D11FE0083A13D302F10402AF
:1012400041EA012141EA014150F8043B121F21BF4C
:101250004B40A3F1013C2CEA030C1CF0803FF3D07F
:10126000C9B2001F083210F8013B521E28BF91EA94
:10127000030FF8D818BF0120401E70471B4213D13E
:10128000094236D12AB18446B0FBF2F002FB10C20B
:10129000704700F0C3BCFCD30022002370470B0052
:1012A0000200002100207047904271EB030CF6D33E
:1012B00070B5B1FA81F4B3FA83F52C1BA340C4F1E5
:1012C000200532FA05F63343A2405FF00046E640BF
:1012D00002E05B085FEA3202841A71EB030524BF67
:1012E000204629467641F4D302000B00300000214D
:1012F00070BD012ACFD970B5140C20D0B1FA81F499
:10130000B2FA82F5C4F120046419B4F12006D6D3F0
:10131000B2405FF00044F440002502E052085FEA6A
:101320003303C61A71EB020E24BF30467146644186
:101330006D41F3D302000B002000290070BD0C4664
:10134000B1FBF2F102FB11452D0445EA1045B5FB56
:10135000F2F402FB145580B240EA0545B5FBF2F009
:1013600002FB105240EA044070BD03FC62B38B07DD
:1013700008D0521E11F8013B00F8013B00F0248018
:101380008B07F6D1830740F0208000BF103A07D3C7
:1013900030B4B1E83810103AA0E83810F9D230BCB7
:1013A000530724BFB1E80810A0E8081044BF51F863
:1013B000043B40F8043BD20724BF31F8022B20F84D
:1013C000022B44BF0B7803707047083A07D3B1E88B
:1013D0000810083A40F8043B40F804CBF7D2530712
:1013E000E4E730B4436803F0004201211B031B0B08
:1013F000436004BF0368002B08D10DE00368DD0FD4
:1014000045EA440444605B000360491E4468E3020B
:10141000F4D523031B0B436043681A43426008461C
:1014200030BC70474FF4001C1CEB410F94BF1CEB09
:10143000430F09E041EA030C50EA4C0C52EA0C0C51
:1014400003D2994208BF9042704714BF8B42824238
:101450007047FC034FF4001C1CEB410F94BF1CEBC6
:10146000430F09E041EA030C50EA4C0C52EA0C0C21
:1014700003D28B4208BF8242704714BF9942904208
:101480007047000070B504460D466068C0F30A500E
:1014900040F2FF71884207D16068000304BF2068F2
:1014A000002817D0022070BD20B92046FFF799FF11
:1014B000012868DA012D0FDB40F2FF71091A8D4215
:1014C0000AD3606800284CBF9FED300B9FED310BB5
:1014D00084ED000B012070BD4142A942616806DA2B
:1014E0006FF31E51401941EA0050606042E0401E17
:1014F00063684519012205F1350062F31F53352851
:1015000001F00041636003D361600020206070BD82
:10151000002215F11F0F04DA226823600020203515
:101520006060684214D0521E25689241C0F12003C9
:10153000D2439D4045EAD272256825FA00F66568D7
:1015400005FA03F333432360636823FA00F565600B
:1015500060680843B2F1004F606003D80DD1207875
:10156000C0070AD52068401C2060206828B9606840
:10157000401C60604FF0FF3070BD6068884204BF5F
:1015800020680028F6D1002070BD00BF00000000D8
:101590000000F0FF000000000000F07FF446400D66
:1015A00040EAC120490006D200F014F8004248BFCA
:1015B0006FF00040604700F00DF84FF000418842A6
:1015C0008CBF084640426047400D40EAC1204900B8
:1015D00080F00D8040F00040490DA1F58061491C6C
:1015E00005D4D1F11F0154BFC840C01770474FF058
:1015F00000007047010040F10980F446404200F0CD
:1016000005F851F000416047010000BF09D0B0FA71
:1016100080F18840C91CC1F58461090501EBD02126
:1016200040057047F0B44FF0004591EA030F44BF06
:101630006B4000F0F5BA00BF841A71EB030604D2C8
:101640006E40001BB141121973414FF4001C1CEB9A
:10165000410F34BF7CEB430684E00C0DA4EB135622
:10166000362E7DDC012E43DC45EAC32343EA525388
:1016700012BFD20292025B08240545EAC12141EA69
:101680005051D2EBC020994125D407D1B0FA80F651
:1016900010FA06F164D00020203608E0B1FA81F695
:1016A000B140C6F1200220FA02F21143B0404FEAE5
:1016B000F474B4EB465434F001064FEA74040AD8CB
:1016C000D6F50016760D04F00044F04061FA06F2FB
:1016D0005040F1404840C00A40EA415021F00041EA
:1016E00028BF5FEA500550F1000044EBD12137E0FC
:1016F00045EAC323DB0A45EAC121C90AB6F1200540
:101700000EDD42EA0242120CC5F1200603FA06F68B
:10171000EB4042EA06056D42984161F100010DE09F
:1017200062FA06F5F240554063FA06FC82EA0C02C2
:10173000F3405A406D42904161EB030111F4801F68
:1017400005D1641E620502D06D004041494121F47B
:101750008011430875F1004350F1000041EB045142
:10176000F0BC70471CEB410F15D223F0004352EA46
:1017700043060BD04FEA4C0CBCEB410F04D80C0DC8
:10178000661E342EB7DDEBE7801A994150EA410618
:1017900008BF0021E4E708BF1CEB430F28BF6FF030
:1017A0000001DDE7B0B581EA030C0CF0004C40F21B
:1017B000FF7515EA11541DBF15EA1357AC42AF422D
:1017C00039E0E41923EA455343F48013C90241F098
:1017D000004141EA505EC7021100A7FB0202002847
:1017E0004FF00000EEFB01204FF00001E3FB07216A
:1017F00018BF42F00102401800214941E3FB0E01ED
:10180000A4F580640F0302D252004041494154F1D3
:1018100001046CDD470872F1004250F1000051EB09
:101820000451A1F580115CBF41EA0C01B0BD4CEA46
:1018300005510020B0BD05EA1357AC4214BFAF42BA
:1018400041E050EA410E1CBF52EA430E02E06146FD
:101850000020B0BD24423C441BD15FEA070EF6D005
:10186000090302BF01460020AEF1140EB1FA81F760
:10187000AEEB070401FA07FE0C37C7F1200100FAAE
:1018800007F7C8404EEA000E23EA455343F480139D
:10189000A2E733F00043B3FA83F704BFB2FA82FE43
:1018A00077440B3FE41BB7F1200E2FBF02FA0EF373
:1018B000BB40C7F1200E22FA0EFE38BF43EA0E03EA
:1018C000BA40641C82E750EA410E14BF52EA430E4C
:1018D0006FF000014FF4001717EB430F8ABF194652
:1018E00017EB410FB5E74CEA05510020B0BDD4F12C
:1018F0000104B4F120070FDAC4F12007520828BF11
:1019000042F0010210FA07F501FA07F7E1BF2A4396
:10191000E0403843E1400FE0352C98DCC7F120046B
:1019200052EA400220FA07F218BF42F0010231FAEF
:1019300007F0A1400A43002172F1004250F100007B
:1019400051EB0C01B0BD00002DE9F04140F2FF75F4
:1019500081EA030C0CF0004C15EA11541DBF15EA86
:101960001357AC42AF42E9E0BC41C1F31301C3F3EA
:101970001303801A994143F4801304D2641E40007B
:10198000494180185941C90241EA5051B1FBF3F66F
:1019900003FB1611A2FB0675D7EBC020A94102D2AA
:1019A000761E80185941C90241EA5051B1FBF3FE3D
:1019B00003FB1E11A2FB0E75D7EBC020A94103D279
:1019C000AEF1010E80185941890241EA9051760525
:1019D00046EA8E2EB1FBF3F603FB1611A2FB067549
:1019E000D7EB8020A94102D2761E80185941C90246
:1019F00041EA50514EEA060EB1FBF3F603FB161115
:101A0000A2FB0675D7EBC020A94102D2761E801832
:101A10005941C90241EA5051B1FBF3F703FB1711D9
:101A2000A2FB0735D3EBC020A94167F100070CBF2B
:101A3000004247F0010766F3D5274FEA1E31B80888
:101A400014F5806414DDBD0775F1004250EB0E50B3
:101A500051EB045111F5801F5CBF41EA0C01BDE858
:101A6000F0814CF07F6141F0E0410020BDE8F08161
:101A7000BD076D0840EA0E5041F48011D4F1010415
:101A8000B4F120060ADAC4F120060200E04001FAAF
:101A900006F3E1401843B24015430EE0342C14DC49
:101AA000C6F1200445EA40056D0820FA06F2154308
:101AB00021FA06F0A1400D43002175F1004250F1DA
:101AC000000051EB0C01BDE8F08100205FEA0C0141
:101AD000BDE8F081CFB992185B41B3FA83F704BF38
:101AE000B2FA82F6BF190B3FB7F120062FBF02FAF8
:101AF00006F3BB40C7F1200622FA06F638BF33438F
:101B0000BA401CB1E419641E2FE77F4231F0004156
:101B1000B1FA81F404BFB0FA80F6A4190B3CB4F119
:101B200020062FBF00FA06F1A140C4F1200620FADA
:101B300006F638BF3143A0403C1B16E7AC421ABF43
:101B400005EA1357AF4214E050EA41061CBF52EABF
:101B50004306BFE750EA4107304661461CBF41EAF1
:101B60000551BDE8F08152EA430C08BFC143BDE80E
:101B7000F08100204FF4001616EB410F98BF16EBD2
:101B8000430F08BF16EB410F24BFC14305E016EB1E
:101B9000430F0CBF61464CEA0551BDE8F0810000DF
:101BA00080B5134800F0A6F80FF24C020FF2440182
:101BB0000160426241600FF24402826381600FF271
:101BC0004402C1600161416181618162C16201635E
:101BD0004163C2630164416401BD10B5044800F073
:101BE00089F80446206808B9FFF7DAFF204610BDDF
:101BF000C811FF1F000000002E00000066616C731A
:101C000065000000747275650000000091FBF2F33E
:101C100003FB1211C0E9003170470000704700005B
:101C2000841A71EB030603D2001BB14112197341F0
:101C30004FF4001C1CEB410F34BF7CEB430443E02A
:101C40000C0DA4EB1356352E50DC45EAC323DB0AFA
:101C500045EAC121C912B6F120050DDD63FA05F68A
:101C6000EB4086EA0305124218BF45F00105C01893
:101C700051F100010CD213E062FA06F5F240554032
:101C8000F3415A40B340F3405A408018594107D3BA
:101C900049085FEA30005FEA350528BF45F00105D5
:101CA00001F58011420875F1004250F1000041EB4E
:101CB0000451F0BC4FF4001C1CEB410F38BF7047BF
:101CC0000020090D090570471CEB410F10D252EAA4
:101CD00043060BD0BCEB410F05D80C0DAB43661E81
:101CE000342EB5DD02E0AB4380185941F0BC70479B
:101CF000F0BC7047704700003F3F404047484A4BA8
:101D00004C4D0000606162630000000000000000B4
:101D100000000000000000000000000000000000C3
:101D20000000000000004E6F6E4D61736B61626CCD
:101D30006500000000486172644661756C740000C3
:101D4000000000004D656D4D616E6167656D656EEB
:101D50007400004275734661756C740000000000E9
:101D6000000055736167654661756C740000000082
:101D70000000000000000000000000000000000063
:101D80000000000000000000000000000000000053
:101D90000000000000000000000000000000000043
:101DA0000000000000000000000000000053564347
:101DB000616C6C000000000000000000446562756A
:101DC000674D6F6E69746F720000000000000000C4
:101DD0000000000000000000000050656E645356D3
:101DE0000000000000000000005379735469636B29
:101DF0000000000000000000444D413000000000E1
:101E000000000000000000444D41310000000000CF
:101E1000000000000000444D4132000000000000BE
:101E20000000000000444D413300000000000000AD
:101E300000000000444D413400000000000000009C
:101E4000000000444D41350000000000000000008B
:101E50000000444D4136000000000000000000007A
:101E600000444D4137000000000000000000000069
:101E7000444D413800000000000000000000004414
:101E80004D41390000000000000000000000444DFA
:101E900041313000000000000000000000444D41CE
:101EA000313100000000000000000000444D4131CD
:101EB0003200000000000000000000444D413133BA
:101EC00000000000000000000000444D41313400DB
:101ED000000000000000000000444D4131350000CA
:101EE0000000000000000000444D415F4572726F29
:101EF000720000000000004D434D00000000000093
:101F00000000000000004654464C000000000000A5
:101F10000000000000526561645F436F6C6C697380
:101F2000696F6E004C56445F4C565700000000002D
:101F30000000004C4C5700000000000000000000B2
:101F400000005761746368646F6700000000000060
:101F500000524E470000000000000000000000009A
:101F6000493243300000000000000000000000493A
:101F70003243310000000000000000000000535018
:101F800049300000000000000000000000535049EC
:101F900031000000000000000000000053504932F2
:101FA000000000000000000000000043414E305FD0
:101FB0004F525F4D425F6275660043414E305F4253
:101FC00075735F4F666600000043414E305F457297
:101FD000726F72000000000043414E305F54785F22
:101FE0005761726E696E6743414E305F52785F573A
:101FF00061726E696E6743414E305F57616B655F1A
:102000005570000000526573657276656435310065
:102010000000000052657365727665643532000019
:1020200000000043414E315F4F525F4D425F627589
:10203000660043414E315F4275735F4F6666000034
:102040000043414E315F4572726F72000000000024
:1020500043414E315F54785F5761726E696E6743DA
:10206000414E315F52785F5761726E696E674341CE
:102070004E315F57616B655F5570000000526573AC
:10208000657276656435390000000000526573653D
:1020900072766564363000000000005541525430BD
:1020A0005F52585F54580000000055415254305F51
:1020B00045525200000000000055415254315F5219
:1020C000585F54580000000055415254315F45524A
:1020D0005200000000000055415254325F52585FD8
:1020E00054580000000055415254325F455252008E
:1020F000000000000055415254335F52585F54585D
:102100000000000055415254335F45525200000018
:1021100000000055415254345F52585F545800003B
:10212000000055415254345F4552520000000000F7
:102130000055415254355F52585F5458000000001A
:1021400055415254355F4552520000000000004195
:102150004443300000000000000000000000414443
:1021600043310000000000000000000000434D501B
:10217000300000000000000000000000434D50311E
:102180000000000000000000000000434D5032003D
:102190000000000000000000000046544D30000028
:1021A00000000000000000000046544D3100000017
:1021B000000000000000000046544D320000000006
:1021C00000000000000000434D540000000000002B
:1021D0000000000000005254430000000000000016
:1021E0000000000000526573657276656438330044
:1021F00000000000504954300000000000000000C2
:1022000000000050495431000000000000000000B0
:10221000000050495432000000000000000000009F
:10222000005049543300000000000000000000008E
:102230005044423000000000000000000000005543
:102240005342300000000000000000000000555321
:1022500042444344000000000000000000454E4599
:10226000545F313538385F54696D6572454E455459
:102270005F5472616E736D69740000454E45545F22
:1022800052656365697665000000454E45545F45BB
:1022900072726F720000000000493253300000007B
:1022A000000000000000000053444843000000000C
:1022B0000000000000000044414330000000000026
:1022C0000000000000004441433100000000000015
:1022D00000000000005453493000000000000000DE
:1022E000000000004D434700000000000000000017
:1022F0000000004C5054696D657200000000000041
:1023000000005265736572766564313032000000FA
:1023100000504F5254410000000000000000000037
:10232000504F5254420000000000000000000050D6
:102330004F52544300000000000000000000504FC6
:1023400052544400000000000000000000504F52B2
:102350005445000000000000000000005265736555
:102360007276656431303800000000526573657222
:10237000766564313039000000005265736572760D
:102380006564313130000000005265736572766516
:102390006431313100000000526573657276656406
:1023A0003131320000000052657365727665643128
:1023B0003133000000005265736572766564313117
:1023C0003400000000526573657276656431313502
:1023D0000000000052657365727665643131360025
:1023E0000000005265736572766564313137000014
:1023F0000000526573657276656431313800000003
:1024000000526573657276656431313900000000F1
:102410000021030085832B0084822A0000B0034042
:1024200000B00B40008003400090034000800B4050
:1024300000F00F4040F00F4080F00F40C0F00F4020
:1024400000F10F4066000A1D32000701640007100A
:102450006E000406780004088200040A8C00040C54
:102460009600040EA0000410AA000412B400041484
:10247000BE000416C8000418D200041ADC00041CB4
:10248000E100041DE600041EEB00041FF400031726
:10249000FA000318130101062C01021400010908B7
:1024A0000090044000A0044000B0044000C004407C
:1024B00000D0044000A0064000B0064000C0064026
:1024C00000D0064000A00E4000B00E409A99BD41D9
:1024D0000000904033333340B702B7023F003F0063
:1024E000020401015811FF1FA811FF1F5811FF1FFF
:1024F0005811FF1F5811FF1F350CFF1F1C0CFF1F29
:1025000000000000000000000000000000000000CB
:1025100000000000000000000000000000000000BB
:10252000000000002DE9F84F04000D0016001F0008
:1025300064B2002C0DD064B2012C02D064B2022C23
:1025400002D16DB2022D04DB2E21DFF8C40400F0AD
:102550007EFADFF8C00400684FF47A7148434010F7
:10256000B04204D22F21DFF8A80400F070FA64B260
:10257000002C03D0022C66D049D380E0DFF8980409
:10258000006850F08070DFF8901408606DB2002D84
:102590000BD0022D15D00ED3042D1ED017D3062D2F
:1025A00027D020D3072D2AD02FE04FF4806141207F
:1025B00000F0CCFA2AE04FF48061422000F0C6FA25
:1025C00024E04FF48061432000F0C0FA1EE04FF495
:1025D0008061442000F0BAFA18E04FF440710720FF
:1025E00000F0B4FA12E04FF48061652000F0AEFA1A
:1025F0000CE04FF48061662000F0A8FA06E04FF48A
:102600008061672000F0A2FA00E0D9E037E0DFF84F
:102610000804006850F00070DFF8FC1308606DB229
:10262000002D02D0012D06D00BE04FF440710C209C
:1026300000F08CFA06E04FF440710D2000F086FAAD
:1026400000E0BDE01BE0DFF8D403006850F08070CC
:10265000DFF8C81308606DB2002D02D0012D06D03E
:102660000BE04FF44071322000F070FA06E04FF4B6
:102670004071332000F06AFA00E0A1E0FFE7DFF8E4
:10268000940300684FF47A714843401080465FEA33
:102690001840B0FBF6F08146002082461FFA89F907
:1026A000484650FA0AF0012802DB1AF1010AF5E760
:1026B0005FFA8AFABAF1080F05DB4FF48671DFF88A
:1026C000500300F0C4F9404630FA0AF0B0FBF6F0CF
:1026D000814664B2002C03D0022C18D00CD322E027
:1026E0001FFA89F919F1010000FB07F04FF47A7124
:1026F000B0FBF1F0834616E01FFA89F919F10100E9
:1027000000FB07F06421B0FBF1F083460BE01FFAF9
:1027100089F919F1010000FB07F042F21071B0FBDA
:10272000F1F08346FFE7DFF8F80264B250F82400C6
:102730006DB210EBC500DFF8E81264B251F8241056
:102740006DB211EBC501C96831F00401C160DFF859
:10275000D00264B250F824006DB210EBC5002821FD
:10276000C1605FFA8AFA1AF0070050F02800DFF81B
:10277000B01264B251F8241008601FFA89F9DFF82A
:10278000A00264B250F82400C0F808900020DFF8DE
:10279000901264B251F82410C864DFF8840264B265
:1027A00050F824006DB210EBC5001FFA8BFBC0F887
:1027B00010B00020DFF8681264B251F824104860AD
:1027C000BDE8F18F2DE9F04104000D0016005FF027
:1027D000000864B2002C0ED064B2012C02D064B2A6
:1027E000022C02D16DB2022D05DB40F24711DFF859
:1027F000200200F02CF964B2002C03D0022C14D07B
:102800000AD31DE0B6F57A7F05D94FF4A671DFF83B
:10281000000200F01CF913E0652E05D34FF4A871F7
:10282000DFF8EC0100F013F90AE042F21170864281
:1028300005D34FF4AA71DFF8D80100F008F9FFE7DB
:10284000DFF8DC0164B250F8240080688046B8F1FB
:10285000000FF5D064B2002C03D0022C14D00AD3A0
:102860001CE018F1010000FB06F04FF47A71B0FB98
:10287000F1F0070012E018F1010000FB06F06421FE
:10288000B0FBF1F0070009E018F1010000FB06F0D1
:1028900042F21071B0FBF1F00700FFE7DFF88001B2
:1028A00064B250F824006DB210EBC5000761BDE8BA
:1028B000F08110B5040064B2012C07D064B2022C80
:1028C00004D04FF43571524800F0C1F864B22000D2
:1028D000012802D0022811D021E04F48006850F0B2
:1028E00000704D4908604FF4E0610C2000F02EF9B3
:1028F0004FF4E0610D2000F029F915E04748006829
:1029000050F08070454908604FF4C0610A2000F023
:102910001DF94FF4C0610A2000F018F904E04FF4EB
:1029200047713B4800F093F83D4864B250F82400EA
:10293000406D50F004003A4964B251F824104865E3
:10294000374864B250F82400D0F8800050F00800F6
:10295000334964B251F82410C1F880000020304996
:1029600064B251F82410C8644FF6FF702C4964B269
:1029700051F8241088602A4864B250F82400D0F836
:10298000800050F00100264964B251F82410C1F8CB
:102990008000234864B250F82400406D50F00100DC
:1029A0001F4964B251F82410486500201C4964B2E4
:1029B00051F82410486010BD38B5040064B2012CF1
:1029C00007D064B2022C04D040F23931104800F034
:1029D0003EF8134864B250F824004068050028000F
:1029E00000B232BD10B5040064B2012C07D064B24D
:1029F000022C04D040F24731054800F028F80020AE
:102A0000074964B251F82410486010BD000000006E
:102A1000F45500005411FF1F3C80044030800440F6
:102A20003C0BFF1FDFF800F0610CFF1FDFF800F028
:102A30007D0CFF1FBFF34F8F3C48006810F4E0602F
:102A40003B49084339490860BFF34F8FFEE738B56B
:102A500004000D002A002100364800F0B9F8FEE716
:102A600038B504000D00210049B2032000F00EFA31
:102A7000200032BD10B50024042000F05DFA0420CF
:102A800000F090FA002841D1002000F0A3FA0420C1
:102A900000F088FA012801D101200400002000F094
:102AA000C1FA254800F094F84FF4FA7000F0F4FAF7
:102AB000E4B2012CEBD1042000F074FA0028E6D136
:102AC000042000F06FFA002806D1002000F0AAFAD6
:102AD000642000F0E1FAF3E7042000F063FA012833
:102AE00006D1002000F09EFA322000F0D5FAF3E77C
:102AF000124800F06DF8FFF795FF642000F0CCFA63
:102B00000020FFF793FFFFF795FFC0E710BD10B55A
:102B10000B4804780B48E4B20F2101FB0402E4B235
:102B20002100094800F054F810BD00000CED00E051
:102B30000400FA055057000028580000A85700006C
:102B400004ED00E02004FF1F1855000010B41E4AD9
:102B500012684FF40073C0B24409A3401A431A4BE1
:102B60001A601A4AC0B2431152F82320C0B210F0C2
:102B70001F0342F8231010BC704710B4124A1268A9
:102B80004FF40073C0B24409A3401A430E4B1A60BD
:102B900031F4E0610D4AC0B2431152F82320C0B2B3
:102BA00010F01F0352F8232012F4E0621143074A89
:102BB000C0B2431152F82320C0B210F01F0342F8F4
:102BC000231010BC7047000038800440B80BFF1F72
:102BD0000EB400B582B003A90091024600AB0121FA
:102BE000034878440A30FDF717FC06BC5DF810FB7B
:102BF000152C0000F8B504000D0016001F00DFF8CA
:102C0000CC020088ADF80200DFF8C4020088ADF8FD
:102C1000000002220DF10201032000F044F92A0015
:102C20002100032000F03FF93A003100032000F0BA
:102C30003AF9022200A9032000F035F9F1BD38B5B8
:102C400004000D00DFF88C020088ADF80200DFF808
:102C500088020088ADF8000002220DF10201032075
:102C600000F021F92A002100032000F01CF90222C3
:102C700000A9032000F017F931BD2DE9F843040045
:102C80000D0064B2002C08D0022C2CD018D3042CD8
:102C90004FD03BD3052C5FD071E0DFF840020068D5
:102CA00050F48060DFF8341208604FF44071662001
:102CB000FFF74CFF4FF440716720FFF747FF5EE0DE
:102CC000DFF81802006850F40060DFF810120860A6
:102CD0004FF440714320FFF739FF4FF44071442017
:102CE000FFF734FF4BE0DFF8F401006850F4805048
:102CF000DFF8E81108604FF440716320FFF726FF0A
:102D00004FF440716220FFF721FF38E0DFF8CC017B
:102D1000006850F40050DFF8C41108604FF44071AF
:102D20005020FFF713FF4FF440715120FFF70EFFC3
:102D300025E0DFF8AC01006850F48060DFF8A011F6
:102D400008604FF440714E20FFF700FF4FF44071D0
:102D50004F20FFF7FBFE12E0DFF88401006850F41B
:102D60000060DFF87C1108604FF440718920FFF7A4
:102D7000EDFE4FF440718820FFF7E8FEFFE7DFF833
:102D8000640164B250F82400C07810F0F300DFF85A
:102D9000541164B251F82410C870DFF8480164B2CD
:102DA00050F824008078DFF83C1164B251F8241008
:102DB000887064B2002C02D064B2012C06D14A485B
:102DC00000684FF47A714843814605E0474800683F
:102DD0004FF47A71484381462801B9FBF0F00600B0
:102DE000B6B2B6F5005F02DB41F6FF700600B9FB34
:102DF000F5F0B6B2B0EB06100700BFB2202F04DB2F
:102E00004FF498713A48FFF722FE364864B250F802
:102E10002400007810F0E0008046C6F3042050EA59
:102E20000800304964B251F8241008702D4864B28B
:102E300050F8240046702B4864B250F82400807A81
:102E400010F0E000804617F01F0050EA0800254906
:102E500064B251F824108872224864B250F82400F9
:102E6000007C50F088001F4964B251F824100874A7
:102E70001C4864B250F82400C07850F00C00194986
:102E800064B251F82410C870BDE8F183154A40B20D
:102E900052F8202012791206F8D5124A40B252F8A0
:102EA0002020D171704770B504000D00160030006D
:102EB000461E002808D095F9001049B2200040B203
:102EC000FFF7E4FF6D1CF2E770BD0000EA1100009F
:102ED000221200006A1300005214000034800440E3
:102EE00028800440CC0BFF1F4C11FF1F5411FF1F03
:102EF000C456000080B540F213110E20FFF726FEE5
:102F000040F213110F20FFF721FE40F213111020A1
:102F1000FFF71CFE40F213111120FFF717FE01BD51
:102F200010B504002000C0B200F070F9002801D1F3
:102F3000002000E0012010BD10B5040064B2082C90
:102F40000DDA00220021224864B2205C00F0B0F8C3
:102F500003211F4864B2205CFFF70FFE14E0082035
:102F600004002000441E40B200280DD000220021A1
:102F7000174864B2205C00F09BF80321144864B247
:102F8000205CFFF7FAFDECE710BD10B50400104817
:102F900064B2205C00F03AF9002801D1002000E082
:102FA000012010BD10B50400200040B2FFF7EDFF76
:102FB00000280AD10A2000F06FF8200040B2FFF785
:102FC000E4FF002801D1002000E0012010BD000036
:102FD0001404FF1F10B5040064B2042C07DA0122A8
:102FE0000121144864B2205C00F062F80EE0042075
:102FF00004002000441E40B2002807D00122012115
:103000000C4864B2205C00F053F8F2E710BD38B50C
:1030100004000D002900C9B2064864B2205C00F02B
:103020009EF831BD10B50400024864B2205C00F087
:10303000D0F810BD1C04FF1F30B4134C246854F0AA
:103040008074114D2C60114C246854F001040F4D14
:103050002C600F4C246821000E4C24684FF47A75C4
:1030600094FBF5F404FB00F423005C1822008A4270
:1030700003D2074C2468A242FBD3054C2468944237
:10308000FBD330BC70470000FCED00E0001000E016
:10309000041000E04C11FF1F10B504002000441E76
:1030A000002804D04FF47A70FFF7C6FFF6E710BD92
:1030B00070B504000D0016004FF480712000C0B2FE
:1030C000FFF744FD6DB2002D11D16048E4B26111EB
:1030D00050F821005D49E4B2621151F822104969AB
:1030E000012214F01F039A409143416136E0574892
:1030F000E4B2611150F821005449E4B2621151F870
:1031000022104969012214F01F039A4011434161C2
:10311000F6B2002E11D14D48E4B2611150F82100F1
:103120000068012114F01F02914088434749E4B22E
:10313000621151F82210086010E04448E4B26111B5
:1031400050F821000068012114F01F02914008434B
:103150003E49E4B2621151F82210086070BD38B5E2
:1031600004000D003948E4B2611150F821004069B3
:1031700014F01F010200CA40D00703D46321344871
:10318000FFF765FCEDB2002D11D13048E4B26111BA
:1031900050F821000068012114F01F02914088437B
:1031A0002A49E4B2621151F82210086010E0274861
:1031B000E4B2611150F821000068012114F01F02EF
:1031C000914008432149E4B2621151F8221008608D
:1031D00031BD10B504001D48E4B2611150F8210062
:1031E000406914F01F010200CA40D00703D47B21BC
:1031F0001748FFF72CFC1548E4B2611150F8210084
:10320000012114F01F029140C16010BD10B50400EF
:103210000E48E4B2611150F82100406914F01F011A
:103220000200CA40D00703D58C210948FFF70FFCE4
:103230000648E4B2611150F82100006914F01F0142
:103240000200CA4012F0010010BD0000480BFF1F31
:10325000285600003333B33E575BB13E6076AF3E35
:103260009FABAD3EC3D3AB3E0309AA3E5E4BA83E27
:103270009D80A63EF8C2A43E6F12A33ECA54A13E52
:1032800040A49F3ED2009E3E48509C3EDAAC9A3EFF
:103290006C09993E1973973EABCF953E5839943ED1
:1032A00021B0923ECE19913E97908F3E5F078E3EA1
:1032B000287E8C3E0C028B3EF085893ED509883EE7
:1032C000B98D863E9D11853E9CA2833E9C33823EF5
:1032D0009CC4803E36AB7E3E6DE77B3EA323793EA9
:1032E000A245763E0F9C733E45D8703E7B146E3EE1
:1032F000E86A6B3E55C1683EC217663E2F6E633E5C
:10330000D3DE603E3F355E3EE3A55B3E8716593E09
:103310002B87563ECFF7533E7368513E4DF34E3EDA
:10332000F1634C3ECCEE493EA779473E8104453ED1
:103330005C8F423E6E34403E48BF3D3E5A643B3E49
:1033400035EF383E4694363E5839343E6ADE313EDB
:10335000B29D2F3EC4422D3ED5E72A3E1EA7283EF1
:103360006666263E780B243EC1CA213E098A1F3E6E
:1033700052491D3ED1221B3E19E2183E62A1163E63
:10338000E17A143E2A3A123EA913103E29ED0D3E71
:10339000A8C60B3E27A0093EA779073E2653053E47
:1033A000A52C033E2506013E48BFFD3DB5A6F93DCF
:1033B000B459F53D2041F13D8D28ED3D8CDBE83DD4
:1033C000F8C2E43D65AAE03DD191DC3D3E79D83DAF
:1033D000AA60D43D1748D03D832FCC3DF016C83DA0
:1033E0005DFEC33D371AC03DA301BC3D7E1DB83D07
:1033F000EA04B43DC520B03D3108AC3D0B24A83DE6
:10340000E63FA43D5227A03D2D439C3D075F983DDC
:10341000E17A943DBC96903D96B28C3D70CE883D4D
:103420004BEA843D2506813DFE437A3DB37B723DE8
:1034300068B36A3D1CEB623DAC8B5B3D61C3533DA1
:1034400016FB4B3DCA32443D5BD33C3D0F0B353D33
:103450009FAB2D3D54E3253D091B1E3D99BB163DF9
:103460004DF30E3DDE93073D2497FF3C45D8F03CDD
:10347000AE47E13CCE88D23CEFC9C33C5839B43C9E
:10348000787AA53CE2E9953C022B873C45D8703C14
:1034900017B7513C5839343C99BB163CD734EF3BF5
:1034A0005839B43BB37B723BFAEDEB3A00000000B5
:1034B000FAEDEBBAB37B72BB5839B4BBD734EFBB70
:1034C00099BB16BC583934BC17B751BC45D870BC31
:1034D000022B87BCE2E995BC787AA5BC5839B4BC0C
:1034E000EFC9C3BCCE88D2BCAE47E1BC45D8F0BC66
:1034F0002497FFBCDE9307BD4DF30EBD99BB16BDEF
:10350000091B1EBD54E325BD9FAB2DBD0F0B35BD63
:103510005BD33CBDCA3244BD16FB4BBD61C353BD3A
:10352000AC8B5BBD1CEB62BD68B36ABDB37B72BD87
:10353000FE437ABD250681BD4BEA84BD70CE88BDB1
:1035400096B28CBDBC9690BDE17A94BD075F98BDE4
:103550002D439CBD5227A0BDE63FA4BD0B24A8BDB2
:103560003108ACBDC520B0BDEA04B4BD7E1DB8BDF8
:10357000A301BCBD371AC0BD5DFEC3BDF016C8BDFA
:10358000832FCCBD1748D0BDAA60D4BD3E79D8BD2D
:10359000D191DCBD65AAE0BDF8C2E4BD8CDBE8BD1D
:1035A0008D28EDBD2041F1BDB459F5BDB5A6F9BDDD
:1035B00048BFFDBD250601BEA52C03BE265305BE92
:1035C000A77907BE27A009BEA8C60BBE29ED0DBE70
:1035D000A91310BE2A3A12BEE17A14BE62A116BE29
:1035E00019E218BED1221BBE52491DBE098A1FBE58
:1035F000C1CA21BE780B24BE666626BE1EA728BEA1
:10360000D5E72ABEC4422DBEB29D2FBE6ADE31BEB2
:10361000583934BE469436BE35EF38BE5A643BBE88
:1036200048BF3DBE6E3440BE5C8F42BE810445BE85
:10363000A77947BECCEE49BEF1634CBE4DF34EBEFA
:10364000736851BECFF753BE2B8756BE871659BE3F
:10365000E3A55BBE3F355EBED3DE60BE2F6E63BEAC
:10366000C21766BE55C168BEE86A6BBE7B146EBEEB
:1036700045D870BE0F9C73BEA24576BEA32379BE0B
:103680006DE77BBE36AB7EBE9CC480BE9C3382BEE3
:103690009CA283BE9D1185BEB98D86BED50988BE0C
:1036A000F08589BE0C028BBE287E8CBE5F078EBE65
:1036B00097908FBECE1991BE21B092BE583994BE5C
:1036C000ABCF95BE197397BE6C0999BEDAAC9ABEA2
:1036D00048509CBED2009EBE40A49FBECA54A1BE0C
:1036E0006F12A3BEF8C2A4BE9D80A6BE5E4BA8BE4C
:1036F0000309AABEC3D3ABBE9FABADBE6076AFBE5F
:10370000575BB1BE3333B3BE2DE9FE4F002100221B
:103710000020ADF806004FF0FF0A0020ADF80800C9
:1037200000235FF0000E002500260020DFF844B4DF
:103730008BF8000000200400E4B2802C3EDADFF8B1
:103740003804E4B2201890F8800052FA80F2E4B213
:103750001C2C02DBE4B2642C07DBDFF81C04E4B2AF
:10376000201890F8800053FA80F3DFF80C04E4B2DC
:10377000201890F8800080B21FFA8AFA504506D2CD
:10378000DFF8F403E4B2201890F880008246BDF818
:103790000600DFF8E4B3E4B214EB0B0B9BF880B047
:1037A0001FFA8BFB584507D2DFF8CC03E4B2201890
:1037B00090F880B0ADF806B0641CBDE7BDF8060017
:1037C0001FFA8AFA1AFA80F05FF03C0B0BFB00F04C
:1037D0005FF0640B90FBFBF001009BB2382093FB81
:1037E000F0FBADF808B0DFF8900390F8BF0089B2A5
:1037F00080B2814280F097803F200400E4B2082C20
:103800000FDBDFF87403E4B2201890F8800080B278
:1038100089B2884203D2A0460120864601E0641E98
:10382000ECE740200400E4B2782C0EDAD248E4B28F
:10383000201890F8800080B289B2884203D2A14655
:103840000120050001E0641CEDE75FFA8EFEBEF189
:10385000010F01D1012000E00020EDB2012D02D1C5
:103860005FF0010B01E05FF0000BC0B210EA0B0F3C
:103870000CD05FFA89F959FA88F05FF0020B90FBDF
:10388000FBF0DFF8F8B28BF8000016E15FFA8EFE6D
:10389000BEF1010F01D1012000E00020EDB2002DAA
:1038A00002D15FF0010B01E05FF0000BC0B210EA43
:1038B0000B0F0ED07F2081465FFA89F959FA88F004
:1038C0005FF0020B90FBFBF0DFF8B0B28BF800006A
:1038D000F3E05FFA8EFEBEF1000F01D1012000E09F
:1038E0000020EDB2012D02D15FF0010B01E05FF08D
:1038F000000BC0B210EA0B0F0ED0002080465FFA1A
:1039000089F959FA88F05FF0020B90FBFBF0DFF8C1
:103910006CB28BF80000D0E099480078DFF85CB218
:103920008BF80000C9E09648007840282ADA3F204A
:103930000400E4B2082C53DB8F48E4B2201890F85E
:10394000800089B280B281421AD2A14601200500CE
:10395000E4B2022094FBF0F00700FFB2082F0EDB68
:103960008548E4B2201890F8800080B289B288427D
:1039700003D2B8460120864601E07F1EEDE72FE026
:10398000641ED6E740200400E4B2782C28DA7A4896
:10399000E4B2201890F8800089B280B281421DD232
:1039A000A04601208646E4B214F17F005FF0020BCE
:1039B00090FBFBF00700FFB2782F0EDA6E48E4B2FE
:1039C000201890F8800080B289B2884203D2B946AC
:1039D0000120050001E07F1CEDE701E0641CD3E756
:1039E0005FFA8EFEBEF1010F01D1012000E0002040
:1039F000EDB2002D02D15FF0010B01E05FF0000B92
:103A0000C0B210EA0B0F0CD05FFA89F959FA88F0AE
:103A10005FF0020B90FBFBF0DFF860B18BF8000069
:103A20004BE05FFA8EFEBEF1010F01D1012000E0F4
:103A30000020EDB2002D02D15FF0010B01E05FF03C
:103A4000000BC0B210EA0B0F0ED07F2081465FFA48
:103A500089F959FA88F05FF0020B90FBFBF0DFF870
:103A60001CB18BF8000028E05FFA8EFEBEF1000F5B
:103A700001D1012000E00020EDB2012D02D15FF064
:103A8000010B01E05FF0000BC0B210EA0B0F0ED08B
:103A9000002080465FFA89F959FA88F05FF0020B3E
:103AA00090FBFBF0DFF8D4B08BF8000005E0344861
:103AB0000078DFF8C8B08BF800000020060092B252
:103AC000802092FBF0F00100082084465FFA8CFC15
:103AD000BCF1780F17DA28485FFA8CFC1CEB000069
:103AE00090F98000B0EB010B8DF804B09DF9040053
:103AF000122805DA9DF9040010F1110F00DB761C85
:103B00001CF1010CE2E7F6B2292E07DB89B2542939
:103B100004DB0120DFF85CB08BF80000002000908F
:103B2000DFF854B01548007810EB0B00DDF800B05A
:103B300080F880B00020DFF840B05FFA88F818EB1A
:103B40000B0B8BF880000020DFF82CB05FFA89F9AE
:103B500019EB0B0B8BF8800008480078DFF820B0D9
:103B60008BF80000B9EB0800DFF818B08BF8000004
:103B7000BDE8F78FC111FF1F240EFF1F1204FF1FA6
:103B80001304FF1FC011FF1F2DE9F04F86B0002165
:103B90000020ADF814000020ADF812000022002033
:103BA000ADF810000020ADF80E0000230020ADF8A5
:103BB00000004FF0FF090020ADF80C000020ADF828
:103BC0000A00FF20ADF80800FF20ADF80600002035
:103BD000ADF80400002600270020DFF8ECA38AF8E7
:103BE000000000200400E4B2802C26DADFF8DC03B9
:103BF000E4B2205C1218DFF8D403E4B2205C80B297
:103C00001FFA89F9484504D2DFF8C003E4B2205C0A
:103C10008146BDF80000DFF8B4A3E4B214F80AA0AE
:103C20001FFA8AFA504506D2DFF8A003E4B214F86E
:103C300000A0ADF800A0641CD5E7BDF800001FFA95
:103C400089F919FA80F05FF0380A0AFB00F05FF09A
:103C5000640A90FBFAF00100DFF87003DFF870A34C
:103C60009AF800A01AF8000089B280B2814280F070
:103C70009080DFF85C0300780400E4B2152C0DDBC3
:103C8000DFF84803E4B2205C80B289B2884203D2F4
:103C9000A6460120060001E0641EEEE7CC4800784D
:103CA0000400E4B26C2C0CDAC848E4B2205C80B2A8
:103CB00089B2884203D2A0460120070001E0641CBB
:103CC000EFE7F6B2012E01D1012000E00020FFB2A3
:103CD000012F02D15FF0010A01E05FF0000AC0B2DB
:103CE00010EA0A0F0CD04FFA88F848FA8EF05FF00D
:103CF000020A90FBFAF0DFF8DCA28AF8000005E186
:103D0000F6B2012E01D1012000E00020FFB2002F09
:103D100002D15FF0010A01E05FF0000AC0B210EAD0
:103D20000A0F0ED06C2080464FFA88F848FA8EF0C1
:103D30005FF0020A90FBFAF0DFF898A28AF8000020
:103D4000E4E0F6B2002E01D1012000E00020FFB235
:103D5000012F02D15FF0010A01E05FF0000AC0B25A
:103D600010EA0A0F0ED0142086464FFA88F848FA57
:103D70008EF05FF0020A90FBFAF0DFF858A28AF8A2
:103D80000000C3E092480078DFF848A28AF80000FB
:103D9000BCE08F480078402828DA8D48007804007D
:103DA000E4B2152C4BDB8948E4B2205C89B280B2C6
:103DB000814219D2A04601200700A4465FFA8CFC7C
:103DC000BCF1150F0FDB81485FFA8CFC1CF800007A
:103DD00080B289B2884203D2E6460120060002E0A2
:103DE000BCF1010CEAE72AE0641ED9E778480078C4
:103DF0000400E4B26C2C22DA7448E4B2205C89B28C
:103E000080B2814219D2A64601200600A4465FFA7C
:103E10008CFCBCF16C0F0FDA6C485FFA8CFC1CF860
:103E2000000080B289B2884203D2E0460120070038
:103E300002E01CF1010CEAE701E0641CD9E7F6B2EC
:103E4000012E01D1012000E00020FFB2012F02D19C
:103E50005FF0010A01E05FF0000AC0B210EA0A0F49
:103E60000CD04FFA88F848FA8EF05FF0020A90FB07
:103E7000FAF0DFF860A18AF8000047E0F6B2012E00
:103E800001D1012000E00020FFB2002F02D15FF03D
:103E9000010A01E05FF0000AC0B210EA0A0F0ED07A
:103EA0006C2080464FFA88F848FA8EF05FF0020ADC
:103EB00090FBFAF0DFF81CA18AF8000026E0F6B2C9
:103EC000002E01D1012000E00020FFB2012F02D11D
:103ED0005FF0010A01E05FF0000AC0B210EA0A0FC9
:103EE0000ED0142086464FFA88F848FA8EF05FF01C
:103EF000020A90FBFAF0DFF8DCA08AF8000005E087
:103F000033480078DFF8CCA08AF800004FFA88F830
:103F10004FFA8EFEB8EB0E00002805D52C4800782D
:103F2000DFF8B0A08AF800000020030092B28020E1
:103F300092FBF0F0010008200500EDB2782D12DAB6
:103F40002248EDB22856B0EB010A8DF802A09DF987
:103F50000200122805DA9DF9020010F1110F00DBB2
:103F60005B1C6D1CE9E79BB2292B07DB89B2542946
:103F700004DB0120DFF850A08AF800000020DFF801
:103F80004CA0DFF850B09BF800B00BF80A000020FE
:103F9000DFF838A04FFA8EFE0EF80A000020DFF896
:103FA0002CA04FFA88F808F80A000A480078DFF8D1
:103FB00020A08AF80000B8EB0E00DFF81CA08AF8F9
:103FC000000006B0BDE8F08FBF11FF1F240EFF1FD9
:103FD0001104FF1F1004FF1FBE11FF1FDFF800F0C8
:103FE000C90DFF1FDFF8B41340B231F8201040B202
:103FF0000128C0F2798140B2162880F27581002232
:10400000DFF89C331A7089B2C92904DA0022DFF87C
:1040100090335A707EE089B2B1F5C87F04DC01228A
:10402000DFF87C335A7075E089B2B1F5167F04DC95
:104030000222DFF86C335A706CE089B2B1F5487F28
:1040400004DC0322DFF858335A7063E089B2B1F51B
:104050007A7F04DC0422DFF848335A705AE089B2D0
:10406000B1F5966F04DC0522DFF834335A7051E065
:1040700089B2B1F5AF6F04DC0622DFF824335A7041
:1040800048E089B2B1F5C86F04DC0722DFF81033CD
:104090005A703FE089B2B1F5E16F04DC0822DFF825
:1040A00000335A7036E089B2B1F5FA6F04DC0922A8
:1040B000DFF8EC325A702DE089B240F69902914255
:1040C00003DA0A22B64B5A7024E089B2B1F5166FB2
:1040D00003DC0B22B24B5A701CE089B240F6292255
:1040E000914203DA0C22AE4B5A7013E089B2B1F55B
:1040F0002F6F03DC0D22AA4B5A700BE089B240F6F9
:10410000B932914203DA0E22A54B5A7002E00F2217
:10411000A34B5A7089B2332903DA0022A04B9A705C
:1041200071E089B2652903DA01229D4B9A706AE039
:1041300089B2972903DA0222994B9A7063E089B217
:10414000C92903DA0322964B9A705CE089B2FB29F5
:1041500003DA0422924B9A7055E089B2B1F5967F4A
:1041600003DC05228E4B9A704DE089B2B1F5AF7F2A
:1041700003DC06228A4B9A7045E089B2B1F5C87F0C
:1041800003DC0722864B9A703DE089B2B1F5E17FEE
:1041900003DC0822824B9A7035E089B2B1F5FA7FD0
:1041A00003DC09227E4B9A702DE089B240F227226F
:1041B000914203DA0A227A4B9A7024E089B2B1F56F
:1041C000167F03DC0B22764B9A701CE089B240F21A
:1041D0008B22914203DA0C22714B9A7013E089B260
:1041E000B1F52F7F03DC0D226D4B9A700BE089B285
:1041F00040F2EF22914203DA0E22694B9A7002E0FC
:104200000F22674B9A7089B21A2903DA0022644B95
:10421000DA7069E089B2332903DA0122604BDA707F
:1042200062E089B24C2903DA02225D4BDA705BE06E
:1042300089B2652903DA0322594BDA7054E089B256
:104240007E2903DA0422564BDA704DE089B29729B1
:1042500003DA0522524BDA7046E089B2B02903DA5C
:1042600006224F4BDA703FE089B2C92903DA0722F0
:104270004B4BDA7038E089B2E22903DA0822484B66
:10428000DA7031E089B2FB2903DA0922444BDA7093
:104290002AE089B2B1F58A7F03DA0A22404BDA704C
:1042A00022E089B2B1F5967F03DC0B223C4BDA7039
:1042B0001AE089B2B1F5A37F03DA0C22384BDA7029
:1042C00012E089B2B1F5AF7F03DC0D22344BDA7016
:1042D0000AE089B2B1F5BC7F03DA0E22304BDA7006
:1042E00002E00F222E4BDA70704710B50400200058
:1042F00040B2FFF777FE2B48007810F0FD00294907
:1043000008702848007850F0100026490870B8203E
:104310002549087025480078C006FBD4234800785A
:10432000C0F38100C0B20228F8D11D48C3781C48F0
:1043300082781B4841781A480078FFF74FFE1748EB
:1043400064B210EB8400807810F007001849087000
:10435000124864B210EB8400C07810F01F0050F0D7
:10436000400014490870114800788006FBD50F48BA
:1043700000784006FBD50C48007810F03F000A4951
:1043800008700A480078C0F38100C0B20328F8D151
:10439000024864B230F82400C0B210BD5C0BFF1FAD
:1043A000B40BFF1F01400640004006400640064097
:1043B000044006400540064010B5040000220321D9
:1043C0000020FEF7FFF9220002210020FEF7FAF993
:1043D00010BD10B50400220003210020FEF7F2F901
:1043E000002202210020FEF7EDF910BD10B50400F7
:1043F000002201210020FEF7E5F922000021002023
:10440000FEF7E0F910BD10B50400220001210020E4
:10441000FEF7D8F9002200210020FEF7D3F910BDE5
:1044200010B50400002C03D42000FFF7C5FF03E003
:1044300064422000FFF7CDFF10BD10B50400002C32
:1044400003D42000FFF7D2FF03E064422000FFF70F
:10445000DAFF10BD80B51E2342F210720221002047
:10446000FEF760F81E2342F2107203210020FEF7CF
:1044700059F81E2342F2107200210020FEF752F874
:104480001E2342F2107201210020FEF74BF801BDFD
:1044900080B56C4800886C4908806C4800886C497D
:1044A00008806C480088674908806B480088674925
:1044B00008806A4800686A4908606A4800686A4972
:1044C00008606A4800886A490988401A614908807A
:1044D0006848008868490988401A5F490880604830
:1044E00000685C49B1F90010564AB2F90020891AF7
:1044F00000EE101AB8EEC00A6049D1ED000A20EEB5
:10450000200ABDEEC00A10EE101A08185149B1F980
:10451000001000EE101AB8EEC00A5949D1ED000A99
:1045200020EE200ABDEEC00A10EE101A0818464907
:10453000B1F90010434AB2F90020B1EB4201454AFB
:10454000B2F90020891800EE101AB8EEC00A4D49E1
:10455000D1ED000A20EE200ABDEEC00A10EE101ABE
:1045600008183E490860404800683B49B1F900100E
:10457000364AB2F90020891A00EE101AB8EEC00AC5
:104580003E49D1ED000A20EE200ABDEEC00A10EE31
:10459000101A08183049B1F9001000EE101AB8EEE0
:1045A000C00A3749D1ED000A20EE200ABDEEC00A4C
:1045B00010EE101A08182649B1F90010234AB2F972
:1045C0000020B1EB4201244AB2F90020891800EE24
:1045D000101AB8EEC00A2B49D1ED000A20EE200ACD
:1045E000BDEEC00A10EE101A08181E4908601B48DC
:1045F0000068B0F5617F03DD4FF461701749086012
:104600001648006810F5617F02DA1F4813490860F8
:1046100014480068B0F5617F03DD4FF46170114903
:1046200008601048006810F5617F02DA16480D49ED
:1046300008600A480068FFF7F3FE0A480068FFF7C1
:10464000FCFE01BDB411FF1FB611FF1FBA11FF1F01
:10465000BC11FF1FB211FF1FB811FF1F3011FF1F48
:104660003411FF1F3811FF1F3C11FF1FAC11FF1F3A
:10467000A811FF1FAE11FF1FAA11FF1FE40BFF1FA0
:10468000E80BFF1FEC0BFF1F7CFCFFFF38B504009D
:1046900064B26511EDB2002D02D0012D11D021E0E0
:1046A000A348006850F00060A1490860A148006874
:1046B00030F090009F4908609E4800689D4908605E
:1046C00014E09D48006850F000609B4908609948DC
:1046D000006830F410409749086096480068954992
:1046E000086003E033219548FEF7B1F964B2200079
:1046F000002800F08980012800F08680032800F05F
:10470000838008284ED0092851D00A2854D00B287D
:1047100057D00C285AD00D285DD00E2860D00F2815
:1047200063D0102870D0112864D0122867D01328C5
:104730006AD0142868D01A2866D01D2864D01E2894
:1047400062D0202861D021285FD023285DD0242882
:104750005CD025285FD0262862D0272865D028285D
:1047600068D029286BD02A286ED02B2871D02C280D
:1047700074D02D2877D02E287AD02F287DD03028BD
:1047800000F0858031287DD0322800F080803328E9
:104790007DD034287BD03A2879D03D2877D03E2868
:1047A00075D075E000212020FEF7D0F974E00021DB
:1047B0002120FEF7CBF96FE000210720FEF7C6F9B4
:1047C0006AE000210820FEF7C1F965E000212220FF
:1047D000FEF7BCF960E000212320FEF7B7F95BE0AB
:1047E00000214020FEF7B2F956E000214120FEF7FB
:1047F000ADF951E000219820FEF7A8F94CE0002126
:104800009920FEF7A3F947E046E045E0002180202B
:10481000FEF79CF940E000218120FEF797F93BE08C
:1048200000218220FEF792F936E000218320FEF776
:104830008DF931E000212020FEF788F92CE00021DD
:104840002120FEF783F927E000212420FEF77EF9DE
:1048500022E000212520FEF779F91DE00021262025
:10486000FEF774F918E000212720FEF76FF913E036
:1048700000212A20FEF76AF90EE000212B20FEF726
:1048800065F909E000211120FEF760F904E003E07A
:104890009A212A48FEF7DBF831BDF8B504000D0077
:1048A00064B266110027290049B2200040B200F02E
:1048B0001CF8234876B250F8260000680006F8D5A8
:1048C0001F4876B250F82600006907001C4876B2EF
:1048D00050F82600006830F08000194976B251F88F
:1048E00026100860380080B2F2BD30B440B24211E8
:1048F00010F01F0349B28C0014F00C0454F0500463
:104900000F4D52B255F82250AC6004240C4D52B2F7
:1049100055F82250EC60DBB213F01F0454F0400451
:10492000074D52B255F822502C6030BC7047000041
:104930003C80044018800440308004408C550000C6
:10494000340BFF1F38B504000225E4B2022C03DB50
:1049500033218948FEF77BF82800451EC0B20028A5
:1049600007D02100C9B28548EDB2285CFEF7F7FBFD
:10497000F2E731BD38B504000225E4B2022C03DBB6
:1049800040217D48FEF763F82800451EC0B200288C
:1049900007D02100C9B27A48EDB2285CFEF7DFFBF0
:1049A000F2E731BD38B504000225EDB2002D14D078
:1049B0006D1E7448EDB22856FFF768FE00220121F3
:1049C0006F48EDB2285CFEF773FB002201216B48B3
:1049D000EDB2285CFEF76CFBE7E76B4804606A48C1
:1049E00000686A49096801FB00F1002000F0DAF86C
:1049F00000F088F831BD0CB438B504000D0064B285
:104A0000032C03DB61215C48FEF721F8002264B22D
:104A1000022C04DA5E4B64B243F8245013E064B213
:104A2000022C10D104AB1800290023005C1E5BB2DD
:104A3000002B08D0564BD2B243F82210521C036808
:104A4000001D1900F1E731BC5DF80CFB0120514954
:104A50000870704780B54F4890F90000012805D1D3
:104A600000F010F802204B49087001E000F04AF80D
:104A700001BD81B0009000994A1E00920029FAD130
:104A800001B0704770B5802500240020FFF772FF49
:104A90000A20FFF7EEFF0120FFF754FF0A20FFF77F
:104AA000E8FF0120FFF766FF0A20FFF7E2FF002082
:104AB000FFF748FF0A20FFF7DCFF2800451EC0B2C1
:104AC00000281ED00020FFF755FF0220060030000E
:104AD000461EC0B200280CD000212A48F6B230563B
:104AE000FFF7DBFE2A49F6B251F82610E4B2605413
:104AF000EDE70120FFF73EFF0A20FFF7BAFF641C35
:104B0000DBE770BD10B580240020FFF733FF0120E4
:104B1000FFF7AFFF0120FFF715FF0120FFF7A9FF07
:104B20000120FFF727FF0120FFF7A3FF0020FFF779
:104B300009FF0120FFF79DFF2000441EC0B200289E
:104B40000CD00020FFF716FF0120FFF792FF012095
:104B5000FFF710FF0120FFF78CFFEDE710BD80B5D8
:104B60000D4B0E4A0E490220FFF745FF0120FFF7CB
:104B700019FF01BD00000000545500002C0BFF1F61
:104B8000300BFF1F280BFF1F180EFF1F5411FF1FB4
:104B90001C0EFF1FC211FF1F240FFF1FA40EFF1FBB
:104BA000240EFF1F38B504000D00002D03D1242171
:104BB0001748FDF74CFF1748006850F400001549EE
:104BC0000860002014490860681E144964B222017C
:104BD0005050124864B210EB0410C06850F001004D
:104BE0000E4964B211EB0411C8600C4864B210EBBA
:104BF0000410806840084000084964B211EB0411B9
:104C000088600320054964B211EB0411886031BD4E
:104C1000905600003C800440007003400071034047
:104C2000DFF800F04F2A0000F02052490870514888
:104C300000780006FBD54F4800787121084201D06A
:104C4000002000E0012070474B48006850F400202D
:104C500049490860474800780006FBD5F0204549DF
:104C60000870704710B582B00400A4B24FF48050B1
:104C700000FB04F000900920404908709DF80200F4
:104C80003F4908709DF801003E4908709DF80000FA
:104C90003D490870FFF7C8FF002801D100200EE051
:104CA000A4B2002C0AD15FF0FF327FF001034FF471
:104CB0008161200080B200F003F800E0012016BD01
:104CC000F0B583B006000F0014001D00B6B24FF41B
:104CD0008050BFB200FB06700190BFB2082097FB66
:104CE000F0F101FB1071002903D0F5212748FFF7EF
:104CF00097FFBFB2B7F5805F03DDF7212348FFF7C9
:104D00008FFF9DF806001E4908709DF805001D499B
:104D100008709DF804001C49087000949DF8030079
:104D20001B4908709DF802001A4908709DF801009F
:104D3000194908709DF800001849087007200F49AC
:104D4000087000959DF80300154908709DF8020051
:104D5000144908709DF80100134908709DF800007F
:104D600012490870FFF760FF002801D1002000E021
:104D70000120FEBD0000024004F001400700024097
:104D8000060002400500024004000240C055000039
:104D90000B0002400A0002400900024008000240E5
:104DA0000F0002400E0002400D0002400C000240C5
:104DB000F0B4114E366834000F4E366856F47F0654
:104DC0000D4F3E600E0616F0706656EA0076170527
:104DD00017F470073E431F0417F470273E43074F34
:104DE0003E6000263500EDB29D4201D26D1CFAE70F
:104DF000014E3460F0BC704700F001404480044034
:104E0000012110F01F029140614A40B2430942F86B
:104E10002310704700B5ADF2B44D72B65A205D490B
:104E200008805A205C49088000A85C4940F2B442DE
:104E3000FCF7ACFA5FF4E1310320FDF71EFF002020
:104E4000FEF7C8F80120FEF7C5F80220FEF7C2F809
:104E50000320FEF7BFF800F0BBF800F0BEF800F04A
:104E6000F5F8FEF747F8FFF7F5FAFFF778FE4C493B
:104E7000542000F0B2F94420FFF7C2FF62B649485F
:104E800090F9000001284BD100F0D1F84648007895
:104E9000352812DB444800784A280EDA4348007867
:104EA00037280ADB41480078482806DA8F2039493C
:104EB00008808F20384908801CE03C48007837285B
:104EC00003DB3A48007848280EDB3748007835285D
:104ED0000ADB354800784A2806DA7B202D4908800D
:104EE0007B202D49088005E05D202A4908805D204F
:104EF00029490880FFF7CCFA2D4800882D49088001
:104F00002D4800882B4948800E20FEF709F800281C
:104F100003D10A212748FDF792FE0020214908709D
:104F2000264890F900000128A9D1FFF78FFDFFF76F
:104F300091FDFEF729FEFEF7E7FB214890F90000FE
:104F400001280DD11F4890F90000002808D117480A
:104F500000781549087000210020FEF758F803E09A
:104F600001210020FEF753F80F48007800F080F888
:104F70000020124908700F20FDF7D2FF00287FF4AF
:104F80007EAF8023104A80211048FDF733FE76E77C
:104F900000E100E0AC11FF1FAE11FF1F5432000012
:104FA0009D540000C311FF1F1004FF1F1204FF1FB8
:104FB000A811FF1F2411FF1FAA11FF1FC411FF1FFB
:104FC000BF11FF1FC111FF1FA40EFF1F240EFF1FE3
:104FD00080B50120FDF76DFC01BD80B501224FF6C3
:104FE000FF71012000F010F9002200213020FEF7AF
:104FF0005FF801BD10B50120FDF7DEFC04000120C3
:10500000FDF7F0FC200000B210BD38B53020FEF7EF
:10501000FDF8050000F03DF90400EDB2002D01D1CE
:1050200024B2644200F045F9200000B232BD80B5E0
:10503000FFF7E0FF03490880FFF7E7FF0249088018
:1050400001BD0000A811FF1FAA11FF1F80B540F28B
:10505000B723322200210220FDF764FA01BD10B50A
:105060000400A4B2220000210220FDF7ABFB10BD1A
:1050700038B50400E4B2D4F13F0000EE100AB8EEF7
:10508000C00A414880ED000A3F4890ED000AB0EEAA
:10509000C00AF2EE040AB4EE600AF1EE10FA22D56C
:1050A0003948006800F020F9384A394BFCF77AFBA0
:1050B000FCF774FA0500344890ED000A3548D0ED4D
:1050C000000A30EE600A10EE100A00F00DF900221E
:1050D000314BFCF767FBFCF761FA401900F2B7208F
:1050E0002E49088021E02848006800F0FDF8274A92
:1050F0002B4BFCF757FBFCF751FA0500224890EDCB
:10510000000A2448D0ED000A30EE600A10EE100AC2
:1051100000F0EAF80022234BFCF744FBFCF73EFAD0
:10512000401900F2B7201D4908801C48B0F9000062
:10513000B0F5437F03DD4FF44370184908801748EA
:10514000B0F9000040F26221884203DA40F26220A6
:10515000124908801148008880B2FFF780FF0F488D
:105160000088114908801148008811490880E4B27C
:105170000E4804800F480749096801600548024944
:105180000968016031BD00004011FF1FCDCCCCCCBF
:10519000CCCC06404411FF1F0000F83FF00BFF1F6E
:1051A000CCCC114000000440F20BFF1FF40BFF1F9A
:1051B000F60BFF1F4811FF1F10B504004FF40070DD
:1051C00094FBF0F101FB1041002903D01E210B4894
:1051D000FDF73DFC0A48046010BD38B504000D0021
:1051E000074800680749884203D030210348FDF78B
:1051F0002EFC044864B240F8245031BDF85600003B
:1052000008ED00E00000FF1F70B504000D0016005F
:105210002E48007850F080002C4908702C48006817
:1052200050F001002A49086064B2012C05D14FF406
:10523000C0611320FDF78AFC12E064B2022C05D194
:105240004FF480614520FDF781FC09E064B2012C38
:1052500006D064B2022C03D032211E48FDF7F7FBC2
:1052600000201D49086023201C490860ADB21C487D
:10527000056076B2012E01D1082000E0002064B262
:10528000210111F03001084350F043001249086039
:1052900070BD11490968090603D54FF6FF71080072
:1052A00005E000210F4A11600E490968080080B22C
:1052B00070470948006840084000074908600648F0
:1052C000006850F001000449086070470050064033
:1052D000388004405C560000000004400400044094
:1052E000080004400C0004405FF0FF0C1CEAD051A1
:1052F00014BF614506E0C110400721F0E04101F113
:105300006051704779B900F0004100020AD0B0FA4C
:1053100080FC00FA0CF001F16051A1EB0C5101EBA3
:10532000D0214005704741020CBF40F4E0016FF00E
:10533000000100207047000080B500F08FF800F0F9
:1053400025F800F005F8FDF795FBFFF763FDFEE794
:1053500080B51220FEF7C9FF324908603148006865
:105360004FF47A714843304908602F4800682F494C
:105370000968C1F30361491CB0FBF1F02C490860D6
:105380005FF4E1310320FDF778FC01BD2DE9F8431E
:105390002848294988420DD000208046B8F5826F00
:1053A00008D2254850F82800224941F8280018F171
:1053B0000108F3E71F48FFF7FFFE204807002048D9
:1053C000060020480400A01B80464046B0F10108BA
:1053D000002804D030783870761C7F1CF5E71A4816
:1053E00081461A480500B5EB090080464046B0F1F9
:1053F0000108002805D0002089F8000019F10109F2
:10540000F4E713481349144A531A98464346B3F134
:105410000108002B04D00B780370491C401CF5E7F1
:10542000BDE8F1835011FF1F4C11FF1F4480044061
:105430005411FF1F0000FF1F000000001004FF1F99
:10544000F81C000024250000180EFF1FC811FF1FC4
:10545000380CFF1F204C0000004E000080B500F00B
:1054600009F80C4800884FF6FE7108400949088089
:1054700001BD0000EFF3118072B64CF22051064AD4
:1054800011804DF62811044A1180C0B2002800D1C5
:1054900062B67047002005400E2005401A4800887B
:1054A000401C1949088018480088052190FBF1F23A
:1054B00001FB1200002802D1012014490870124893
:1054C0000088062190FBF1F201FB1200002802D1B6
:1054D00001200F4908700C4800881E2190FBF1F252
:1054E00001FB1200002802D100200749088009486A
:1054F000006850F00100074908600648006850F055
:105500000100044908607047B011FF1FC311FF1F5D
:10551000C411FF1F0C7103400A2A2A2A2A646566F7
:1055200061756C745F69737220656E746572656411
:10553000206F6E20766563746F722025642A2A2A94
:105540002A2A0D0A0A257320496E746572727570D5
:1055500074000000463A5C467265657363616C6571
:105560005C44656275675C323031365F30345F327F
:10557000335C426F6172645C7372635C464952458E
:105580005F54534C313430312E630000463A5C4650
:105590007265657363616C655C44656275675C32F6
:1055A0003031365F30345F32335C436869705C732E
:1055B00072635C4D4B36305F6164632E63000000A4
:1055C000463A5C467265657363616C655C4465620E
:1055D00075675C323031365F30345F32335C43683C
:1055E00069705C7372635C4D4B36305F666C6173DF
:1055F000682E6300463A5C467265657363616C654C
:105600005C44656275675C323031365F30345F32DE
:10561000335C436869705C7372635C4D4B36305F1A
:1056200066746D2E63000000463A5C4672656573D1
:1056300063616C655C44656275675C323031365F0E
:1056400030345F32335C436869705C7372635C4D05
:105650004B36305F6770696F2E630000463A5C46D8
:105660007265657363616C655C44656275675C3225
:105670003031365F30345F32335C436869705C735D
:1056800072635C4D4B36305F6C70746D722E6300CC
:10569000463A5C467265657363616C655C4465623D
:1056A00075675C323031365F30345F32335C43686B
:1056B00069705C7372635C4D4B36305F5049542E99
:1056C00063000000463A5C467265657363616C6511
:1056D0005C44656275675C323031365F30345F320E
:1056E000335C436869705C7372635C4D4B36305F4A
:1056F000756172742E630000463A5C46726565738C
:1057000063616C655C44656275675C323031365F3D
:1057100030345F32335C436869705C7372635C6D14
:105720006973632E6300000010B50749794418318E
:10573000064C7C44163404E00A68081D511888475A
:105740000146A142F8D110BD500000005C000000ED
:10575000417373657274696F6E206661696C65640C
:1057600020696E202573206174206C696E65202588
:10577000640A00004EF68851CEF20001086840F439
:1057800070000860BFF34F8FBFF36F8F4FF0007052
:10579000E1EE100A704700001BBAFFFFB0030000E3
:1057A000180EFF1F000000000ABDF8D0D0BDE2CBEC
:1057B000F8B2D9D7F7A3ACC7EBD6D8D0C2CBA2C822
:1057C000EBB9CCBCFE00000000F00BF8002801D0C3
:1057D000FFF7AAFF0020C046C046FFF71BFB00F002
:1057E00002F80120704700F001B800000746384673
:1057F00000F002F8FBE70000202109032631182001
:10580000ABBEF9E738B504460D46284600F006F869
:10581000A84218BF0024204632BD00000149FDF710
:105820001FB900BFF80BFF1F0ABDF8C8EBCBC0D1F2
:10583000ADBBB7B5C8B4FDA3A1000000C046C046CB
:10584000FFF798FFFFF7C0FF000000000000000016
:105850000000000000000000000000000000000048
:1058600000000000FFFFFFFFFFFFFFFF0000000040
:105870000000000000000000000000000000000028
:105880000000000000000000000000000000000018
:10589000FFFFFFFFFFFF000000000000000000000E
:1058A00000000000000000000000000000000000F8
:1058B00000000000000000000000000000000000E8
:1058C00000000000000000000000000000000000D8
:040000050000583D62
:00000001FF
